:03000000020AAC45
:0C0AAC00787FE4F6D8FD75814E02094108
:100A7300000000000000FFFE000000005345543A50
:070A830032307E38304300E1
:0F0A3E008F807F0A7E00120A4DD2A77F0A7E00AA
:0D0A4D00EFD3940040077E6EDEFE1F80F3A5
:010A5A002279
:100A8A00C2B77F46AE071FEE70FAD2B77F04AE0731
:040A9A001FEE70FAE1
:010A9E002235
:0C09F200120A8A7F017E00120A4D7FCCA1
:1009FE00E4FDC2B7EF1392B77E06AC061EEC70FA9A
:0A0A0E00D2B7EFC313FF0DBD08E8D7
:010A180022BB
:100A1900E4FDC2B7D2B7A2B7E433C4333333548049
:100A2900FCEEC3134CFE7F04AC071FEC70FA0DBD3E
:040A390008E0AF061C
:010A3D002296
:080003001209F27F440209FE1C
:080ACC001209F27FBE0209FECF
:1009C100120003120ACC120A19AB07120A19EFFE20
:1009D100EBFFAD07AC06EC12033BE4FBFA79C878F8
:1009E10040120106E4FBFAF9783F12001512037474
:0109F10022E3
:050A9F00120AA47F0F04
:080AA400C2A6120A3EC2A722FD
:030AB8002430FFE8
:080ABB00D2A6120A3EC2A722D6
:100A5B00C2A5C2A77F38120AA47F0C120AA47F0674
:080A6B00120AA47F01020AA493
:040765008E3C8F3DFA
:10076900783E7C007D007BFF7A0A79737E007F0CDE
:100779001204C57F80120AA47F2B120ABBAE3CAFBC
:100789003D7C277D101204EB8E3E8F3FAE3CAF3D82
:100799007C277D101204EB7E037FE8CFCDCFCECC32
:1007A900CE1204EB8E408F41AE3CAF3D7C037DE819
:1007B9001204EB7E007F64CFCDCFCECCCE1204EBFA
:1007C9008E428F43AE3CAF3D7C007D641204EB7ECC
:1007D900007F0ACFCDCFCECCCE1204EB8E468F4709
:1007E900AE3CAF3D7C007D0A1204EB8C488D497FFD
:1007F90081120AA4E4F52FE52F25E0243EF808E646
:0C080900120AB8052FE52FC3940640EB3F
:0108150022C0
:100987007F647E00120A4D051CE51CB40503751C27
:1009970001E51CB401057FC4120A9FE51CB40205DA
:1009A7007FC5120A9FE51CB403057FC7120A9FE59E
:0A09B7001CB404057FC8120A9F2239
:1008EB007F647E00120A4DE51C24FE601814602301
:1008FB0014602E2403703E051EE51EB40A03E4F5B6
:10090B001EE51E80280526E526B40A03E4F526E538
:10091B0026801A051DE51DB40A03E4F51DE51D80AF
:10092B000C051FE51FB40A03E4F51FE51F120AB8F7
:06093B007F10120AA42245
:100882007F647E00120A4DE51C24FE601C14602B5E
:1008920014603A24037051151EC3E51E64809480CF
:1008A2005003751E09E51E80341526C3E5266480B3
:1008B20094805003752609E5268022151DC3E51D87
:1008C200648094805003751D09E51D8010151FC3B7
:1008D200E51F648094805003751F09E51F2430FFD3
:0908E200120ABB7F10120AA422C5
:10081600E4F53D85903CE53CF460077F057E0012DB
:100826000A4D85903CE53C64F77050E590B4FFFBBB
:10083600053D85903CE53CF460077F057E00120A85
:100846004D85903CE53CF4602BE53CB4F702053D54
:10085600E53DB402057F0C020AA4E53C24056011BF
:1008660024FE600814700D12098780081208EB80B8
:0B08760003120882E590F460B980F9DD
:010881002254
:10058400E4F52AF529F528752740F52EF52D752C67
:1005940080752B40F525F52475238075223FF537AA
:1005A400F53675358075343FF533F5327531C875D8
:1005B4003041AB2EAA2DA92CA82BAF37AE36AD35C2
:1005C400AC3412020FE4FBFA7980783F120015C0B4
:1005D40004C005C006C007AB37AA36A935A834AF96
:1005E40025AE24AD23AC2212020FD003D002D001D9
:1005F400D000120015AB2AAA29A928A8271201069F
:100604008F0B8E0A8D098C08E4FFFEFD7C40AB2520
:10061400AA24A923A822120106AB37AA36A935A811
:100624003412020FE4FBFA7980783F120015C004FB
:10063400C005C006C007AF2AAE29AD28AC271203F7
:1006440025D003D002D001D0001201068F0F8E0EE8
:100654008D0D8C0CAB37AA36A935A834AF25AE2442
:10066400AD23AC2212020FAB2AAA29A928A827126B
:1006740001068F138E128D118C10E4F517F516F503
:0C06840015F514F51BF51AF519F51822F0
:100690001209C1AC06AD07E412033BE4FBFA79C8CA
:1006A000784212020FAB33AA32A931A830120011DE
:1006B0008F3B8E3A8D398C38AF17AE16AD15AC1412
:1006C000AB0FAA0EA90DA80C120106C004C005C0EC
:1006D00006C007AF3BAE3AAD39AC38AB0BAA0AA99E
:1006E00009A808120106D003D002D001D0001200E0
:1006F00015C004C005C006C007AF1BAE1AAD19ACCB
:1007000018AB13AA12A911A810120106D003D00227
:10071000D001D0001200158F4E8E4D8D4C8C4B8524
:10072000171B85161A851519851418853B17853AE8
:1007300016853915853814E4FFFEFD7C3FAB4EAAC3
:100740004DA94CA84B1202AC60025013E4FFFEFD11
:100750007CBFAB4EAA4DA94CA84B1202AC5003C2B1
:04076000A322D2A35B
:010764002272
:10094100758901758CD8758AEFD2A9D28C120A5B90
:100951007F87120AA47F43120ABB7FC0120AA4E454
:10096100FDED900A7F93FF120ABB0DBD0AF3751EC0
:1009710002E4F526751D05F51F1209C1120765125E
:060981000816D2AF80FE53
:03000B00020AC323
:080AC300758CD5758A6B054A9C
:010ACB0032F8
:10000E000203E0E86480F8E933E83360110460F03D
:10001E00ED33EC337009E8FCE9FDEAFEEBFF220458
:10002E0060DED3EB9FEA9EE99DE8C2E78CF0C2F753
:10003E0095F0400CE8CCF8E9CDF9EACEFAEBCFFB1F
:10004E001203AB85D0F05804700320D5B3E80470CA
:10005E00075002B2D50203EA92D5EC0460F7E4CC65
:10006E00C0E0C398F8603B94186008400DD0E0FBE8
:10007E000203C2E4FBFAC9FC8028E830E406E4C9B6
:10008E00FBE4CAFCE830E305E4C9CACBFCE854073C
:10009E006010F8C3E913F9EA13FAEB13FBEC13FC47
:1000AE00D8F130F52FC3E49CFCEF9BFFEE9AFEEDEA
:1000BE0099FDD0E0FBEF4E4D4C701222DB03020394
:1000CE00E7EC2CFCEF33FFEE33FEED33FDED30E7C6
:1000DE00EB0203C2EF2BFFEE3AFEED39FDD0E0FB53
:1000EE0050130BBB00030203EAED13FDEE13FEEFFC
:0800FE0013FFEC13FC0203C226
:10010600EC4D6011E8497017ED33EC3304600DE4F3
:10011600FCFFFEFD22E933E8330470F80203E01227
:1001260003AB58046009E4CC248150062850090228
:1001360003EA2840030203E7C0E0EB4A7044B980B3
:1001460006D0E0FB0203D6EF4E701CBD8008EBFF25
:10015600EAFEE9FD80EBE98DF0A4FEE5F00201EF91
:10016600E9CDF9EAFEEBFFEF89F0A4FCE5F0CE89D4
:10017600F0A42EFFE435F0CD89F0A42DFEE435F091
:100186008067EF4E7005BD80D780C3EF8BF0A4ACBF
:10019600F0EE8BF0A42CFCE435F0F8EF8AF0A42CFA
:1001A600E5F038FCE433CB8DF0A42CFCE5F03BF80D
:1001B600EE8AF0A42CFCE5F038F8E433CF89F0A4FD
:1001C6002CFCE5F038CF3400CE89F0A42FFFE5F003
:1001D6003EFEE433C98DF0A42EFEE5F039CD8AF05B
:1001E600A42FFFE5F03EFEE43DFD33D0E0FB5007D3
:1001F6000BBB000F0203EAEC2CFCEF33FFEE33FEE1
:06020600ED33FD0203C20E
:10020C000203EAEC5D046005E8590470030203E0A4
:10021C001203AB580460F6EC4860F2EC7004FDFE7F
:10022C00FF22C860DB2481C85009C39860025006C5
:10023C000203E79850CAF582E9294B4A7005AB8254
:10024C000203D675F0007C1A7880C3EF9BEE9AED12
:10025C0099400DC3EF9BFFEE9AFEED99FDE842F03D
:10026C00DC23ACF0D0E0FFD0E0FED0E0FDAB822090
:10027C00E7101BEB60BAEC2CFCEF33FFEE33FEED1A
:10028C0033FD0203C2E803F830E705C0F075F00057
:10029C00EF2FFFEE33FEED33FD40B830E7C280AAFE
:1002AC0074F8CC6480CCC86480C8F58204604FC3F9
:1002BC00EB9FF5F0EA9E42F0E99D42F0E89C45F098
:1002CC00603C501DE5825FFFE582D313CB5BCBF422
:1002DC002B5582FB50280ABA002409B9002008804B
:1002EC001DE5825BFBE582D313CF5FCFF4C3132FE5
:1002FC005582FF50090EBE00050DBD00010CC3EB6D
:10030C009FF5F0EA9E42F0E99D42F0E89C45F060D2
:09031C0007CC4820E701B3EC22F4
:10032500ED33EC33600A047003BD8004ECB2E7FCE6
:0103350022A5
:1003360075F020800E75F010800575F0087D007E42
:10034600007F003392D530D503120521EC334010DF
:10035600EF33FFEE33FEED33FDEC33FCD5F0ED224B
:0E036600E5F0247EA2D513CC92E7CDCEFF2287
:10037400EDD2E7CD33EC3392D524814006E4FFFE81
:10038400FDFC22FCE4CFCECDCC24E0501174FF80E0
:10039400EDC3CC13CCCD13CDCE13CECF13CF04707D
:0703A400F030D5DE02052157
:1003AB00E9D2E7C933E833F892D5EDD2E7CD33EC98
:0703BB0033FC5002B2D52211
:1003C200EC30E7100FBF000C0EBE00080DBD00049C
:1003D2000BEB6014A2D5EB13FCED92E7FD2274FF48
:1003E200FCFDFEFF22E480F8A2D574FF13FC7D80A1
:0303F200E480EFB5
:1003F500E709F608DFFA8046E709F208DFFA803EEA
:1004050088828C83E709F0A3DFFA8032E309F608D6
:10041500DFFA8078E309F208DFFA807088828C833E
:10042500E309F0A3DFFA806489828A83E0A3F608F2
:10043500DFFA805889828A83E0A3F208DFFA804CCC
:1004450080D280FA80C680D4806980F280338010A3
:1004550080A680EA809A80A880DA80E280CA80330C
:1004650089828A83ECFAE493A3C8C582C8CCC58384
:10047500CCF0A3C8C582C8CCC583CCDFE9DEE78054
:100485000D89828A83E493A3F608DFF9ECFAA9F0D3
:10049500EDFB2289828A83ECFAE0A3C8C582C8CC29
:1004A500C583CCF0A3C8C582C8CCC583CCDFEADE42
:1004B500E880DB89828A83E493A3F208DFF980CCA4
:1004C50088F0EF60010E4E60C388F0ED2402B4049D
:1004D5000050B9F582EB2402B4040050AF23234544
:0604E50082239004457320
:1004EB00C2D5EC30E709B2D5E4C39DFDE49CFCEE2C
:1004FB0030E715B2D5E4C39FFFE49EFE12052FC370
:10050B00E49DFDE49CFC800312052F30D507C3E46A
:06051B009FFFE49EFE229A
:0E052100C3E49FFFE49EFEE49DFDE49CFC22EB
:10052F00BC000BBE0029EF8DF084FFADF022E4CCB0
:10053F00F875F008EF2FFFEE33FEEC33FCEE9DEC79
:10054F00984005FCEE9DFE0FD5F0E9E4CEFD22EDBF
:10055F00F8F5F0EE8420D21CFEADF075F008EF2F09
:10056F00FFED33FD4007985006D5F0F222C398FDFA
:05057F000FD5F0EA2297
:00000001FF
