:020000040800F2
:100000007804002001010008A50900083507000850
:10001000A1090008EF050008111400080000000005
:10002000000000000000000000000000A50D000816
:10003000F3050008000000004D0C0008190100083D
:100040001B0100081B0100081B0100081B01000820
:100050001B0100081B0100081B0100081B01000810
:100060001B0100081B0100081B0100081B01000800
:100070001B0100081B0100081B0100081B010008F0
:100080001B0100081B0100081B0100081B010008E0
:100090001B0100081B0100081B0100081B010008D0
:1000A0001B0100081B0100081B0100081B010008C0
:1000B0001B010008F10E00081B0100081B010008CD
:1000C0001B0100081B0100081B0100081B010008A0
:1000D0001B0100081B0100081B0100081B01000890
:1000E0001B0100081B0100081B010008DFF80CD0F1
:1000F00000F04CFA00480047FD1700087804002083
:100100000648804706480047FEE7FEE7FEE7FEE7B1
:10011000FEE7FEE7FEE7FEE7FEE7FEE7910E0008DA
:10012000ED000008F0B480EA0102D40F4200B2EB07
:10013000410F02D20246084611464A0042D0C30D82
:10014000DDB2C1F3C752AD1A202D35DAC1F3160165
:1001500041F4000204B15242C5F1200602FA06F150
:100160002A411044B3EBD05F23D0C4B1012DA0EBE2
:10017000C35009DCF0BC4FF0004202EAC352DBB2CC
:1001800000F5000000F077B9400000F1807000EB4E
:10019000C350A0F1807040EAD170490009E04908DD
:1001A00041EAC071A0EBC35000F50000400800EB2D
:1001B000C350F0BC00F056B96142012202EB41018C
:1001C000001BF6E7F0BC704781F00041AAE780F021
:1001D0000040A7E780EA010210B502F000434000AA
:1001E00022D04A001FD0010E01EB1261C0F356006D
:1001F000C2F3560240F4000042F40002A0FB0220C9
:1002000000047F39140400D0401C50EA124001D48D
:100210004000491EC2B20C0604EBD010401C40083E
:10022000802A02D003E0002010BD20F00100002948
:1002300000DA0020184310BD30B480EA010202F059
:10024000004530F0004221F0004013D090B1C30DC2
:10025000D40DC2F31601C0F31600E41A41F40001F4
:1002600040F400027D34914201D3641C00E0490057
:10027000002C02DA30BC002070474FF4000000234D
:10028000914201D3891A034340084FEA4101F7D153
:1002900051B1914202D14FF0004105E002D24FF03E
:1002A000010101E06FF0010103EBC450284430BCB0
:1002B00000F0D8B82DE9FE4F81EA030404F00044B1
:1002C00021F0004100944FF0000B23F0004350EA6E
:1002D00001045ED052EA03045BD0C3F30A54C1F3B5
:1002E0000A552C44A4F2F3340194A0FB0254C1F348
:1002F000130141F48011C3F3130343F4801301FB92
:10030000024400FB034E840A970A44EA815447EAF8
:100310008357A4FB076802958D0A05FB07854FEA02
:10032000932C04FB0C542705029D4FEA065847EA1C
:100330001637B5EB08056EEB070C870E920E47EAF1
:10034000811742EA8312A7FB0201B6EB0B0164EBB3
:1003500000042B0D43EA0C335E1844EB1C50DA46C4
:100360005146E7FB0201C5F313044FEA0B3343EA9E
:1003700014534FEA0432019C43EA0603A4F10C042F
:100380000294009CCDE900B400F0B2F803B0BDE8DF
:10039000F08F00200146F9E796230022114600F075
:1003A0006AB80EB5C10F80EAE0700844CA070021A0
:1003B00040F233438DE80E000A460B4600F098F8F1
:1003C00003B000BD20F00040C10DC0F3160040F4A2
:1003D00000007F2901DA00207047962903DCC1F173
:1003E0009601C840704796398840704701F0004335
:1003F00030B421F0004150EA010206D00A0DA2F506
:100400006072C1F31301002A02DC30BC0020704787
:10041000440F44EAC104C100E01830BC00EBC250F4
:1004200000F020B8002801DBC0F10040002901DB0A
:10043000C1F100418142704730B50B4601460020B2
:100440002022012409E021FA02F59D4205D303FA96
:1004500002F5491B04FA02F52844151EA2F1010217
:10046000F1DC30BD0029A8BF7047401C490008BF1F
:1004700020F00100704710B4B0FA80FC00FA0CF0D4
:1004800050EA010404BF10BC704749B1CCF120040C
:1004900021FA04F411FA0CF118BF01212143084399
:1004A000A3EB0C01CB1D4FEA00614FEA102042BFC5
:1004B000002010BC704700EBC35010440029A4BFBB
:1004C00010BC7047401C490008BF20F0010010BC60
:1004D000704710B5141E73F1000408DA401C41F196
:1004E000000192185B411A4301D120F0010010BDB8
:1004F0002DE9F04D92469B4611B1B1FA81F202E02E
:10050000B0FA80F22032904600F052F804460F46CE
:1005100040EA0A0041EA0B0153465A46084313D009
:10052000114653EA010019D0C8F14002504600F0CC
:100530004EF805460E4650465946424600F038F8F9
:10054000084305D0012004E020463946BDE8F08D7F
:100550000020054346EAE0762C4337430A986305BA
:10056000E40AA0EB08000022FD0A44EA47540A30DE
:1005700002D500200146E9E7010510196941DDE9CE
:10058000084500196941BDE8F04DA2E7064C074D4A
:1005900006E0E06840F0010394E807009847103453
:1005A000AC42F6D3FFF7A6FDF4190008141A0008B0
:1005B000202A04DB203A00FA02F100207047914023
:1005C000C2F1200320FA03F3194390407047202A18
:1005D00004DB203A21FA02F00021704721FA02F3ED
:1005E000D040C2F12002914008431946704700BF35
:1005F000FEE7704701B500BF0098411E009100283A
:10060000FAD108BD2DE9F041024600250026002060
:1006100000230024002791F803C00CF00F0591F887
:1006200003C00CF0100CBCF1000F03D091F802C015
:100630004CEA050591F800C0BCF1000F31D01468F8
:1006400000202BE04FF0010C0CFA00F3B1F800C0D1
:100650000CEA03069E4220D183004FF00F0C0CFAE7
:1006600003F7BC4305FA03FC4CEA040491F803C009
:10067000BCF1280F06D14FF0010C0CFA00FCC2F8B7
:1006800014C00AE091F803C0BCF1480F05D14FF047
:10069000010C0CFA00FCC2F810C0401C0828D1D391
:1006A0001460B1F800C0BCF1FF0F34DD54680020C5
:1006B0002EE000F1080C4FF0010808FA0CF3B1F835
:1006C00000C00CEA03069E4221D183004FF00F0CBC
:1006D0000CFA03F7BC4305FA03FC4CEA040491F856
:1006E00003C0BCF1280F05D100F1080C08FA0CF882
:1006F000C2F8148091F803C0BCF1480F07D100F193
:10070000080C4FF0010808FA0CF8C2F81080401CE1
:100710000828CED35460BDE8F081024600209368DB
:100720000B400BB1012000E0002070474161704791
:100730000161704700BFFEE708B50121082000F005
:10074000A7FA10208DF8030001208DF802004FF465
:10075000E050ADF8000069460648FFF753FF14204B
:100760008DF80300FF20ADF8000069460148FFF74F
:1007700049FF08BD000C014010B5FFF7DDFF382030
:1007800000F058F80C2000F055F8062000F052F860
:10079000012000F04FF810BD70B504460E460EB9AA
:1007A000E5B202E004F14000C5B245F0800000F07F
:1007B00041F870BD70B505460E46144644F62060FB
:1007C000FFF718FF31462846FFF7E6FF03E014F86D
:1007D000010B00F05FF820780028F8D170BD000010
:1007E00010B5FF2012490860891411480C38FFF732
:1007F0009DFF4FF400610E480C38FFF799FF4FF44E
:1008000080610B480C38FFF793FF0120FFF7F2FEE1
:1008100000BF802106480C38FFF77FFF04464FF4E5
:10082000806103480C38FFF781FF002CF1D110BD27
:100830000C0C014010B50446FFF7D2FF4FF4805175
:100840001348FFF773FF4FF400611148FFF76EFF85
:100850004FF480610E48FFF769FF0120FFF7CAFEE1
:100860004FF480610A48FFF763FF09480C300068C5
:1008700044F47F41084006490C31086009150448DA
:10088000FFF754FF4FF4C870FFF7B4FE10BD00002F
:10089000000C014010B50446FFF7A2FF4FF4805151
:1008A0001048FFF745FF4FF400610E48FFF73EFF89
:1008B0001E20FFF79FFE4FF480610A48FFF738FFC4
:1008C00008480C30006844F47F41084005490C3169
:1008D000086009150348FFF729FF4FF4C870FFF7B8
:1008E00089FE10BD000C014010B50446FFF778FFEB
:1008F0004FF480511048FFF71BFF4FF400610E4882
:10090000FFF714FF1E20FFF775FE4FF480610A48C1
:10091000FFF70EFF08480C30006844F47F410840A0
:1009200005490C31086009150348FFF7FFFE4FF435
:10093000C870FFF75FFE10BD000C014008B5012133
:10094000102000F0A5F90121202000F0A1F92020BD
:10095000ADF8000010208DF8030003208DF8020090
:1009600069460E48FFF74EFE0820ADF8000048200B
:100970008DF8030003208DF8020069460748FFF751
:1009800041FE1020ADF800008DF8030003208DF823
:10099000020069460148FFF735FE08BD0008014026
:1009A00000BFFEE77047000070B5002100230F2252
:1009B000C47804B3154C246804F4E064C4F5E0641E
:1009C000210AC1F10403CA40447804FA03F184788F
:1009D0001440214309010E4C0678A155047804F017
:1009E0001F050124AC4005786D11AD0005F1E0252F
:1009F000C5F8004109E0047804F01F050124AC406B
:100A0000044D0678761145F8264070BD0CED00E0E7
:100A100000E400E080E100E002490143024A116085
:100A2000704700000000FA050CED00E008B5012158
:100A3000042000F02DF94FF40060ADF80000102004
:100A40008DF8030003208DF8020069460148FFF786
:100A5000D9FD08BD000801402DE9F041314800886A
:100A6000401C3049088008460088FFF795FC07467F
:100A70002D48C1683846FFF7D5FC01D2BDE8F081AA
:100A8000294A51681068FFF79FFB274948620A46C8
:100A9000516A9069FFF79EFB0446234A916AD06928
:100AA000FFF798FB0546204AD16A106AFFF792FBD0
:100AB000064629462046FFF735FB07463146FFF735
:100AC00031FB194948640A46516C906CFFF72AFBC8
:100AD00015498864B1F84C00FFF75EFC07461248E0
:100AE000816C3846FFF79EFC06D20F49B1F84C00E6
:100AF000FFF752FC0C4988640B49886C0021FFF712
:100B000091FC02D20020084988640748806A06499F
:100B1000C8620846406A886200200249088000BF17
:100B2000ACE7000016000020240000202DE9F04171
:100B30002A482B4908602B48C8604FF47A70A1F806
:100B40004C002948886029480861294848610020EC
:100B500088640A46D1685069FFF76EFB0646204A52
:100B60001169D068FFF768FB07464FF07E51FFF729
:100B7000D9FA05463146FFF7D5FA04461848816888
:100B80002046FFF727FB16498861084641694FF068
:100B90008040FFF71FFB06461148C1683046FFF74B
:100BA0004BFB05464FF07E51FFF7BCFA04460C485C
:100BB00081682046FFF70EFB0949C8610A46516962
:100BC0009068FFF707FB04460548C1682046FFF719
:100BD00033FB03490862BDE8F08100000000704269
:100BE00024000020000048430000A04000007A4597
:100BF0000000FA4410B512480088401C10490880D3
:100C00001048B0F84C000988884202DC00200C49EA
:100C100008800B480088FFF7BFFB04460948816C39
:100C20002046FFF7FFFB05D24FF400610648FFF7AF
:100C30007DFD04E04FF400610348FFF779FD10BD2E
:100C4000140000202400002000080140704700002C
:100C500029B1064AD2690243044BDA6104E0034A2F
:100C6000D2698243014BDA617047000000100240F4
:100C700029B1064A12690243044B1A6104E0034A8F
:100C800012698243014B1A61704700000010024054
:100C900029B1064A92690243044B9A6104E0034A6F
:100CA00092698243014B9A61704700000010024034
:100CB00029B1064AD2680243044BDA6004E0034AD1
:100CC000D2688243014BDA60704700000010024096
:100CD00030B500210022002400232D4D6D6805F061
:100CE0000C0121B1042905D0082923D105E0294DA3
:100CF000056022E0274D05601FE0254D6D6805F475
:100D00007012234D6D6805F48034022505EB924284
:100D10001CB9214D554305600BE01D4D6D6805F470
:100D200000351DB11C4D5543056002E0194D55437A
:100D3000056002E0174D056000BF00BF144D6D68EF
:100D400005F0F0010909154D6B5C0568DD40456053
:100D50000F4D6D6805F4E061090A104D6B5C456844
:100D6000DD4085600A4D6D6805F46051C90A0B4D80
:100D70006B5C4568DD40C560054D6D6805F440411C
:100D8000890B074D6B5CC568B5FBF3F5056130BD9C
:100D90000010024000127A0000093D00000000200F
:100DA00010000020704710B500F002F810BD0000E0
:100DB0000CB50020019000903348006840F480306A
:100DC0003149086000BF3048006800F400300090EE
:100DD0000198401C0190009818B90198B0F5A06FD7
:100DE000F1D12948006800F4003010B101200090D2
:100DF00001E0002000900098012843D123480068BA
:100E000040F01000214908600846006820F0030007
:100E100008600846006840F0020008601A48406810
:100E2000194948600846406848600846406840F4F0
:100E3000806048600846406820F47C10486008469E
:100E4000406840F4E81048600846006840F0807050
:100E5000086000BF0C48006800F000700028F9D05E
:100E60000948406820F00300074948600846406888
:100E700040F00200486000BF0348406800F00C00EA
:100E80000828F9D10CBD00000010024000200240EB
:100E900010B51348006840F0010011490860084689
:100EA0004068104908400E494860084600680E49ED
:100EB00008400B4908600846006820F4802008605C
:100EC0000846406820F4FE0048604FF41F00886028
:100ED000FFF769FF4FF000600449086010BD000093
:100EE000001002400000FFF8FFFFF6FE08ED00E0F2
:100EF00010B50121074800F013F948B10121054858
:100F000000F00AF800F004FDFFF7A6FDFFF772FEFF
:100F100010BD000000040040CA430282704721B1A6
:100F2000028842F00102028004E002884FF6FE735C
:100F30001A4002807047000010B504466848844299
:100F400008D10121C014FFF7B3FE0021E014FFF720
:100F5000AFFEC4E0B4F1804F08D101210846FFF78D
:100F600087FE00210120FFF783FEB8E05D48844240
:100F700008D101210220FFF77BFE00210220FFF7AC
:100F800077FEACE05848844208D101210420FFF7E5
:100F90006FFE00210420FFF76BFEA0E0534884425F
:100FA00008D101210820FFF763FE00210820FFF788
:100FB0005FFE94E04E48844208D101211020FFF7E3
:100FC00057FE00211020FFF753FE88E04948844275
:100FD00008D101212020FFF74BFE00212020FFF740
:100FE00047FE7CE04448844208D101214014FFF7C9
:100FF0005FFE00216014FFF75BFE70E03F48844213
:1010000009D10121C804FFF753FE00214FF400204D
:10101000FFF74EFE63E03A48844209D101210805FA
:10102000FFF746FE00214FF48010FFF741FE56E027
:101030003448844209D101214805FFF739FE0021D7
:101040004FF40010FFF734FE49E02F48844208D1E6
:1010500001214020FFF70CFE00214020FFF708FE91
:101060003DE02A48844208D101218020FFF700FE9C
:1010700000218020FFF7FCFD31E02548844208D1A3
:1010800001218015FFF7F4FD0021A015FFF7F0FD09
:1010900025E02048844209D101210804FFF708FE19
:1010A00000214FF48030FFF703FE18E01A48844215
:1010B00009D101214804FFF7FBFD00214FF4003066
:1010C000FFF7F6FD0BE01548844208D101218804A2
:1010D000FFF7EEFD00214FF48020FFF7E9FD10BD82
:1010E000002C01400004004000080040000C0040BB
:1010F000001000400014004000340140004C01404A
:10110000005001400054014000180040001C004005
:1011100000200040004001400044014000480140E0
:1011200002460020138A0B400BB1012000E0002092
:1011300070471AB183890B43838102E083898B4313
:1011400083817047002202881D4B98420ED01D4BB0
:1011500098420BD0B0F1804F08D01B4B984205D07D
:101160001A4B984202D01A4B984204D14FF68F7313
:101170001A404B881A43174B984207D0164B984297
:1011800004D04FF6FF431A40CB881A4302808B8865
:1011900083850B8803850A4B98420BD0094B9842F4
:1011A00008D00E4B984205D00D4B984202D00D4B03
:1011B000984201D10B7A0386012383827047000095
:1011C000002C0140003401400004004000080040B1
:1011D000000C00400010004000140040004001409E
:1011E00000440140004801401FB501210220FFF7E3
:1011F0002FFD0920ADF808004720ADF804000020BD
:10120000ADF80A00ADF806000F48FFF795FE01A9FA
:101210000D48FFF797FF01210B48FFF780FE0122E1
:1012200011460948FFF785FF1D208DF800000120B9
:101230008DF8010002208DF8020001208DF80300D6
:101240006846FFF7B1FB1FBD0004004001F40072C7
:10125000B2F5007F00D100BFCA430280704721B1C0
:10126000828942F40052828104E082894DF6FF7344
:101270001A4082817047000010B50446204884421D
:1012800009D101218803FFF713FD00214FF48040AD
:10129000FFF70EFD32E01B48844209D101214804CA
:1012A000FFF7E6FC00214FF40030FFF7E1FC25E0FA
:1012B0001548844209D101218804FFF7D9FC002197
:1012C0004FF48020FFF7D4FC18E01048844209D185
:1012D0000121C804FFF7CCFC00214FF40020FFF7E8
:1012E000C7FC0BE00A48844208D101210805FFF73A
:1012F000BFFC00214FF48010FFF7BAFC10BD0000C6
:10130000003801400044004000480040004C0040CC
:101310000050004002460020B1F5007F00D100BF20
:1013200013880B400BB1012000E000207047000043
:101330002DE9F04786B005460E460024A24600BFC0
:10134000A1460027B08900B100BF2F462C8A4CF679
:10135000FF700440F08804432C82AC894EF6F310F1
:101360000440B08831890843718908430443AC8143
:10137000AC8A4FF6FF400440B0890443AC8201A818
:10138000FFF7A6FC1F48874202D1DDF810A001E05C
:10139000DDF80CA0A88900F4004040B10AEBCA00B7
:1013A00000EB0A1031684900B0FBF1F807E00AEBE6
:1013B000CA0000EB0A1031688900B0FBF1F8642024
:1013C000B8FBF0F004012009642101FB1089A88911
:1013D00000F4004040B1322000EBC900B0FBF1F056
:1013E00000F00700044308E0322000EB09106421FC
:1013F000B0FBF1F000F00F0004432C8106B0BDE813
:10140000F087000000380140C1F308028280704775
:1014100000BFFEE70FB4054B10B503A9044A0298BC
:1014200000F02CF810BC5DF814FB0000D917000880
:10143000200000200FB4084B10B504A902AA03989D
:1014400000F01CF8044602A9002000F0B8F920467C
:1014500010BC5DF814FB0000BF17000802E008C8CC
:10146000121F08C1002AFAD170477047002001E01E
:1014700001C1121F002AFBD1704700002DE9FF4F68
:101480008BB088460546002606E025280BD0DDE90E
:101490000D1290476D1C761C28780028F5D10FB0EE
:1014A0003046BDE8F08F0024A146A2460122AE4995
:1014B00000E0044315F8013F203B02FA03F0084224
:1014C000F7D128782A2810D06FF02F022878A0F1C1
:1014D0003001092915D809EB890102EB410144F0DB
:1014E000020400EB01096D1CF0E758F8041B5FEAE9
:1014F000010903D544F40054C9F1000944F0020481
:101500006D1C28782E2817D115F8010F44F004041B
:101510002A280ED06FF02F022878A0F13001092977
:101520000AD80AEB8A0102EB410100EB010A6D1CAB
:10153000F2E758F804AB6D1C28786C280FD006DC55
:101540004C2817D068280DD06A2814D104E07428DC
:1015500010D07A280FD10DE044F400140AE044F4CE
:10156000801401E044F440146978814202D104F50A
:1015700080146D1C6D1C2878692865D006DC002855
:101580008DD0632827D0642806D15DE06E2808D06E
:1015900073282AD0752877D0DDE90D129047761C84
:1015A000E0E0C4F30250022809D003280DD0D8F897
:1015B000001004280DD00E6008F10408D2E0D8F81D
:1015C0000010F217C1E90062F6E7D8F800100E80AB
:1015D000F2E70E70F0E718F8041B8DF800100020F9
:1015E0008DF80100EB46012003E058F804BB4FF0F2
:1015F000FF3061074FF0000701D40AE07F1C574518
:101600000DDA8742FADB1BF807100029F6D106E055
:101610007F1C8742FCDB1BF807100029F8D1DDE9AD
:101620000D23A9EB07008146214600F0B1F83044B4
:10163000C61904E0DDE90D121BF8010B90477F1E6F
:10164000F8D22146484688E058F8040BC4F302510A
:101650004FF00A0B032900D100B2042900D140B297
:10166000002802DA40422D2102E0210505D52B2178
:101670008DF82410012104E006E0E10710D02021BC
:10168000F6E708AF089113E058F8040BC4F30251D1
:101690004FF00A0B032900D180B2042900D1C0B257
:1016A0000021EEE75946FEF7C7FE303107F8011D6D
:1016B0000028F7D1ADEB070000F1200B600702D541
:1016C00024F4803401E04FF0010ADA4502DDAAEB90
:1016D0000B0000E00020824600EB0B01089801445B
:1016E000A9EB01000A90E00306D4DDE90D232146B1
:1016F0000A9800F04DF806444FF0000908E009A9E7
:1017000011F80900DDE90D12904709F10109761C75
:1017100008998945F3DBE0030CD5DDE90D2321466B
:101720000A9800F035F8064404E0DDE90D12302097
:101730009047761CBAF10001AAF1010AF5DC05E038
:10174000DDE90D1217F8010B9047761CBBF1000183
:10175000ABF1010BF4DC0A982146DDE90D2300F022
:1017600005F806446D1C97E6092801002DE9F041B3
:10177000044600251E461746880404D405E0394671
:101780002020B0476D1C641EF9D52846BDE8F081C5
:101790002DE9F041044600251E469046C80301D5B8
:1017A000302700E02027880404D505E0414638466C
:1017B000B0476D1C641EF9D52846BDE8F0810A6863
:1017C000531C0B601070704700BF0100A0F10102B4
:1017D00090B2FAD17047000070B504460D46E1B2F0
:1017E0000548FFF711FE00BF80210348FFF792FD77
:1017F0000028F9D0204670BD003801404FF4E06069
:10180000FFF70AF900F0B4F8FEF7B6FFFFF78EF91C
:10181000FFF70CF9FFF7E8FC1D490868FEF7D2FD59
:1018200005462A461BA14846FFF704FE4A4600210A
:101830000420FEF7BFFFDF20FFF756F84320FFF735
:1018400029F80024FFF77AF821E0601C84B21049DF
:101850004868FEF7B7FD8346FEF79EFD80460C48BC
:1018600041684046FEF7B3FC07460C49FEF7B2FC60
:101870000646FEF7A7FD054605494868FEF7A2FDA6
:1018800082462B465246214605A0FFF7C3FDDCE702
:10189000240000205345543A2564000000007A4497
:1018A0002564203A2025642E252D33640D00000088
:1018B00070B520211548FEF739FF0220FFF784FF9D
:1018C00000251AE010211148FEF732FF0220FFF731
:1018D0007BFF10210D48FEF729FF0220FFF774FF60
:1018E0004FF6FF7000EA440408210848FEF715FF90
:1018F00008B1601C84B2681C85B2102DE2DB202187
:101900000248FEF715FF204670BD000000080140A8
:101910002DE9F04113480088401C12490880084610
:101920000088FEF739FD05460F48C1682846FEF7D6
:1019300079FD01D2BDE8F081FFF7BAFF0446200926
:10194000FEF72FFD07460022084BFEF7B3FC0546C5
:10195000FEF74CFD0449486000200249088000BFA2
:10196000E8E700001C000020240000200000D03F19
:1019700000B585B0012144F20400FFF789F94FF466
:101980000070ADF8100018208DF8130004A9174856
:10199000FEF738FE4FF48060ADF8100004208DF89B
:1019A000130004A91148FEF72DFE1148FFF764FC4F
:1019B00040F22A4000900020ADF80400ADF8060087
:1019C000ADF80800ADF80C000C20ADF80A0069462F
:1019D0000748FFF7ADFC01210548FFF740FC402117
:1019E0000348FFF733FC05B000BD000000080140CC
:1019F00000380140141A00080000002024000000F4
:101A00005C140008381A0008240000205404000068
:101A10006C1400080000000001020304010203042A
:101A20000607080902040608000000000000000084
:081A30000000000000000000AE
:0400000508000101ED
:00000001FF
