:0300000002103AB1
:0C103A00787FE4F6D8FD75817402108107
:0C14E400000000000000FFFE00000000FF
:1014D0000B1A303132333435363738390004103F87
:0314E00080000089
:0F1470008F807F0A7E0012147FD2A77F0A7E0032
:0D147F00EFD3940040077E6EDEFE1F80F369
:01148C00223D
:0414A5007F107E270F
:1014A900EFD39400400B7E6E7D1EDDFEDEFA1F80B9
:0114B900EF43
:0114BA00220F
:1014BB00C2B77F46AE071FEE70FAD2B77F04AE07F6
:0414CB001FEE70FAA6
:0114CF0022FA
:0C1403001214BB7F017E0012147F7FCC0E
:10140F00E4FDC2B7EF1392B77E06AC061EEC70FA7E
:0A141F00D2B7EFC313FF0DBD08E8BC
:0114290022A0
:10142A00E4FDC2B7D2B7A2B7E433C433333354802E
:10143A00FCEEC3134CFE7F04AC071FEC70FA0DBD23
:04144A0008E0AF0601
:01144E00227B
:0814F0001214037F4402140FE3
:0814F8001214037FBE02140F61
:1013A1001214F01214F812142AAB0712142AEFFEC9
:1013B100EBFFAD07AC06EC120B10E4FBFA79C87831
:1013C100401208F8E4FBFAF9783F120807120B49BA
:0113D10022F9
:10124C00AF4CAE4BAD4AAC49120B49AB07AA067C6E
:10125C00007D64120CC08F467C007D64AF03AE022F
:10126C00120CC07E007F0ACFCDCFCECCCE120CC0DC
:10127C008F47AF4CAE4BAD4AAC49120B497C007D4D
:08128C000A120CC08D487FC05E
:08129400C2A6121470C2A722C9
:10136C001213997FC1121294741A2546F8E6FF12D3
:10137C0013997FC2121294741A2547F8E6FF1213C0
:0D138C00997FC3121294741A2548F8E6FFE9
:08139900D2A6121470C2A722B3
:10148D00C2A5C2A77F381212947F0C1212947F0648
:08149D001212947F0102129467
:040EE4008E658F6622
:100EE80078677C007D007BFF7A1479E47E007F0CB4
:100EF800120C9A7F801212947F2B121399AE65AF51
:100F0800667C277D10120D158E678F68AE65AF66FB
:100F18007C277D10120D157E037FE8CFCDCFCECC78
:100F2800CE120D158E698F6AAE65AF667C037DE8BB
:100F3800120D157E007F64CFCDCFCECCCE120D150D
:100F48008E6B8F6CAE65AF667C007D64120D157E6E
:100F5800007F0ACFCDCFCECCCE120D158E6F8F70FD
:100F6800AE65AF667C007D0A120D158C718D727F9F
:100F780081121294E4F53DE53D25E02467F808E682
:0F0F88002430FF121399053DE53DC3940640E860
:010F97002237
:10129C007F647E0012147F050DE50DB40503750DFA
:1012AC0001E50DB4010A7FC41212947F0F1212943F
:1012BC00E50DB4020A7FC51212947F0F121294E549
:1012CC000DB4030A7FC71212947F0F121294E50D0E
:0E12DC00B4040A7FC81212947F0F12129422DB
:10119B007F647E0012147FE50D24FE60181460231B
:1011AB0014602E240370410519E519B40A03E4F504
:1011BB0019E5198028052CE52CB40A03E4F52CE578
:1011CB002C801A0514E514B40A03E4F514E5148015
:1011DB000C0525E525B40A03E4F525E5252430FFA8
:0911EB001213997F1012129422D4
:101132007F647E0012147FE50D24FE601C14602B78
:1011420014603A240370511519C3E5196480948020
:101152005003751909E5198034152CC3E52C6480F8
:1011620094805003752C09E52C80221514C3E514D4
:10117200648094805003751409E51480101525C30A
:10118200E525648094805003752509E5252430FF08
:091192001213997F10121294222D
:1010C600E4F574859073E573F460077F057E00127E
:1010D600147F859073E57364F77050E590B4FFFB59
:1010E6000574859073E573F460077F057E0012141E
:1010F6007F859073E573F4602BE573B4F70205748E
:10110600E574B402057F0C021294E57324056011A0
:1011160024FE600814700D12129C800812119B8028
:0B11260003121132E590F460B980F96B
:01113100229B
:10132D00E4F530F52F752E20752D41F534753350BC
:10133D007532C3753147F52BF52A75297A75284411
:10134D00F545F544754348754242F541F540753F05
:0F135D00F0753E41F53CF53B753AC875394222B3
:10144F00E4F54DD295D297C295C29700D29775B059
:10145F00FFD296C29600AFB0D296D295EFC313FFCC
:01146F00225A
:100D5900AC0EAD0FE4120B10A804A905AA06AB0747
:100D6900AF41AE40AD3FAC3E1208038F508E4F8D60
:100D79004E8C4DAF0CAE0BAD0AAC09AB50AA4FA9C6
:100D89004EA84D1208078F0C8E0B8D0A8C09AF5097
:100D9900AE4FAD4EAC4DAB30AA2FA92EA82D1208DF
:100DA900F88F548E538D528C51AB34AA33A932A883
:100DB90031AF45AE44AD43AC42120A018F608E5F3C
:100DC9008D5E8C5DAB30AA2FA92EA82D1208F88F45
:100DD900608E5F8D5E8C5DAF0CAE0BAD0AAC09AB5E
:100DE90060AA5FA95EA85D1208F88F588E578D56C4
:100DF9008C55AB45AA44A943A842AF2BAE2AAD29CD
:100E0900AC28120A018F648E638D628C61AB30AAA3
:100E19002FA92EA82D1208F88F648E638D628C611C
:100E2900AB38AA37A936A835AF50AE4FAD4EAC4D49
:100E3900120803AB64AA63A962A8611208F88F5C5F
:100E49008E5B8D5A8C59AF58AE57AD56AC55AB54D5
:100E5900AA53A952A851120807AB5CAA5BA95AA8C0
:100E6900591208078F4C8E4B8D4A8C49855038850D
:100E79004F37854E36854D35AF3CAE3BAD3AAC3933
:100E8900AB4CAA4BA94AA849120A9E600F400D858E
:100E99003C4C853B4B853A4A85394922E4FFFEFDA6
:100EA900FCAB4CAA4BA94AA849120A9E700D85139E
:100EB9004C85124B85114A85104922E4FFFE7DC8F5
:100EC9007CC2AB4CAA4BA94AA849120A9E500BE412
:0A0ED900F54CF54B754AC87549C287
:010EE30022EC
:1013D200E4FFFEFDFCAB4CAA4BA94AA849120A9EA7
:1013E200501ED2A3C2A4D2A01214A5C2A0D2A1128E
:1013F20014A5C2A1D2A21214A5C2A2D2A41214A5EB
:0114020022C7
:1011F400E4FFFEFDFCAB4CAA4BA94AA849120A9E87
:1012040040450508AC08E4120B15AB3CAA3BA93ACF
:10121400A839120A9E5003E4F508AC08E4120B1531
:10122400AB4CAA4BA94AA849120A9E60054003C2C6
:10123400A322AC08E4120B15AB4CAA4BA94AA8494B
:07124400120A9E5002D2A322
:01124B002280
:100F9800758901758CD5758A6BD2A9D28CD2AF129E
:100FA800132D12148D12144F750E008F0F120D5938
:100FB8001213D2AE0EAF0F7C007D64120CC08F46A8
:100FC800AE0EAF0F7C007D64120CC07E007F0ACF8E
:100FD800CDCFCECCCE120CC08F47AE0EAF0F7C005B
:100FE8007D0A120CC08D487F80121294741A25460F
:100FF800F8E6FF1213997F81121294741A2547F8A4
:10100800E6FF1213997F8212138FE4FFFEFDFCABFB
:101018004CAA4BA94AA849120A9E400B12124C7FAF
:101028001012136C020FAD12124C7F2D12136C02AA
:021038000FADFA
:03000B000212EAF4
:1012EA00C0E0C0F0C083C082C0D075D000C000C0CA
:1012FA0001C002C003C004C005C006C007758CD572
:10130A00758A6B1211F4D2AFD007D006D005D0047B
:10131A00D003D002D001D000D0D0D082D083D0F078
:03132A00D0E032DE
:10080000020BB5E86480F8E933E83360110460F066
:10081000ED33EC337009E8FCE9FDEAFEEBFF22045E
:1008200060DED3EB9FEA9EE99DE8C2E78CF0C2F759
:1008300095F0400CE8CCF8E9CDF9EACEFAEBCFFB25
:10084000120B8085D0F05804700320D5B3E80470F3
:10085000075002B2D5020BBF92D5EC0460F7E4CC8E
:10086000C0E0C398F8603B94186008400DD0E0FBEE
:10087000020B97E4FBFAC9FC8028E830E406E4C9DF
:10088000FBE4CAFCE830E305E4C9CACBFCE8540742
:100890006010F8C3E913F9EA13FAEB13FBEC13FC4D
:1008A000D8F130F52FC3E49CFCEF9BFFEE9AFEEDF0
:1008B00099FDD0E0FBEF4E4D4C701222DB03020B92
:1008C000BCEC2CFCEF33FFEE33FEED33FDED30E7F7
:1008D000EB020B97EF2BFFEE3AFEED39FDD0E0FB7C
:1008E00050130BBB0003020BBFED13FDEE13FEEF25
:0808F00013FFEC13FC020B974F
:1008F800EC4D6011E8497017ED33EC3304600DE4FA
:10090800FCFFFEFD22E933E8330470F8020BB51250
:100918000B8058046009E4CC248150062850090251
:100928000BBF284003020BBCC0E0EB4A7044B980FF
:1009380006D0E0FB020BABEF4E701CBD8008EBFF4E
:10094800EAFEE9FD80EBE98DF0A4FEE5F00209E19D
:10095800E9CDF9EAFEEBFFEF89F0A4FCE5F0CE89DA
:10096800F0A42EFFE435F0CD89F0A42DFEE435F097
:100978008067EF4E7005BD80D780C3EF8BF0A4ACC5
:10098800F0EE8BF0A42CFCE435F0F8EF8AF0A42C00
:10099800E5F038FCE433CB8DF0A42CFCE5F03BF813
:1009A800EE8AF0A42CFCE5F038F8E433CF89F0A403
:1009B8002CFCE5F038CF3400CE89F0A42FFFE5F009
:1009C8003EFEE433C98DF0A42EFEE5F039CD8AF061
:1009D800A42FFFE5F03EFEE43DFD33D0E0FB5007D9
:1009E8000BBB000F020BBFEC2CFCEF33FFEE33FE0A
:0609F800ED33FD020B9738
:1009FE00020BBFEC5D046005E859047003020BB5F1
:100A0E00120B80580460F6EC4860F2EC7004FDFEA8
:100A1E00FF22C860DB2481C85009C39860025006CB
:100A2E00020BBC9850CAF582E9294B4A7005AB827D
:100A3E00020BAB75F0007C1A7880C3EF9BEE9AED3B
:100A4E0099400DC3EF9BFFEE9AFEED99FDE842F043
:100A5E00DC23ACF0D0E0FFD0E0FED0E0FDAB822096
:100A6E00E7101BEB60BAEC2CFCEF33FFEE33FEED20
:100A7E0033FD020B97E803F830E705C0F075F00080
:100A8E00EF2FFFEE33FEED33FD40B830E7C280AA04
:100A9E0074F8CC6480CCC86480C8F582046043C30B
:100AAE00EB9FF5F0EA9E42F0E99D42F0E89C45F09E
:100ABE0060305018E5825FFFE582F42B5582FB50C3
:100ACE00210ABA001D09B90019088016E5825BFBE0
:100ADE00E582F42F5582FF50090EBE00050DBD00B4
:100AEE00010CC3EB9FF5F0EA9E42F0E99D42F0E85F
:0D0AFE009C45F06007CC4820E701B3EC22D6
:100B0B0075F020800E75F010800575F0087D007E65
:100B1B00007F003392D530D503120D4BEC334010D0
:100B2B00EF33FFEE33FEED33FDEC33FCD5F0ED226E
:0E0B3B00E5F0247EA2D513CC92E7CDCEFF22AA
:100B4900EDD2E7CD33EC3392D524814006E4FFFEA4
:100B5900FDFC22FCE4CFCECDCC24E0501174FF8003
:100B6900EDC3CC13CCCD13CDCE13CECF13CF0470A0
:070B7900F030D5DE020D4B48
:100B8000E9D2E7C933E833F892D5EDD2E7CD33ECBB
:070B900033FC5002B2D52234
:100B9700EC30E7100FBF000C0EBE00080DBD0004BF
:100BA7000BEB6014A2D5EB13FCED92E7FD2274FF6B
:100BB700FCFDFEFF22E480F8A2D574FF13FC7D80C4
:030BC700E480EFD8
:10104600020F98E493A3F8E493A34003F68001F219
:1010560008DFF48029E493A3F85407240CC8C333AB
:10106600C4540F4420C8834004F456800146F6DF7A
:10107600E4800B01020408102040809014D0E47E26
:10108600019360BCA3FF543F30E509541FFEE4936F
:10109600A360010ECF54C025E060A840B8E493A336
:1010A600FAE493A3F8E493A3C8C582C8CAC583CA61
:1010B600F0A3C8C582C8CAC583CADFE9DEE780BE19
:0114E3000008
:100BCA00E709F608DFFA8046E709F208DFFA803E0D
:100BDA0088828C83E709F0A3DFFA8032E309F608FA
:100BEA00DFFA8078E309F208DFFA807088828C8362
:100BFA00E309F0A3DFFA806489828A83E0A3F60816
:100C0A00DFFA805889828A83E0A3F208DFFA804CEF
:100C1A0080D280FA80C680D4806980F280338010C6
:100C2A0080A680EA809A80A880DA80E280CA80332F
:100C3A0089828A83ECFAE493A3C8C582C8CCC583A7
:100C4A00CCF0A3C8C582C8CCC583CCDFE9DEE78077
:100C5A000D89828A83E493A3F608DFF9ECFAA9F0F6
:100C6A00EDFB2289828A83ECFAE0A3C8C582C8CC4C
:100C7A00C583CCF0A3C8C582C8CCC583CCDFEADE65
:100C8A00E880DB89828A83E493A3F208DFF980CCC7
:100C9A0088F0EF60010E4E60C388F0ED2402B404C0
:100CAA000050B9F582EB2402B4040050AF23234567
:060CBA008223900C1A7366
:100CC000BC000BBE0029EF8DF084FFADF022E4CC18
:100CD000F875F008EF2FFFEE33FEEC33FCEE9DECE1
:100CE000984005FCEE9DFE0FD5F0E9E4CEFD22ED27
:100CF000F8F5F0EE8420D21CFEADF075F008EF2F71
:100D0000FFED33FD4007985006D5F0F222C398FD61
:050D10000FD5F0EA22FE
:100D1500C2D5EC30E709B2D5E4C39DFDE49CFCEEF9
:100D250030E715B2D5E4C39FFFE49EFE120CC0C3A5
:100D3500E49DFDE49CFC8003120CC030D507C3E4A0
:060D45009FFFE49EFE2268
:0E0D4B00C3E49FFFE49EFEE49DFDE49CFC22B9
:00000001FF
