:020000040800F2
:100000007004002001010008890C00087B0A000828
:10001000850C000895070008011700080000000083
:100020000000000000000000000000009510000823
:100030003909000800000000050F00081901000838
:100040001B0100081B0100081B0100081B01000820
:100050001B0100081B0100081B0100081B01000810
:100060001B0100081B0100081B0100081B01000800
:100070001B0100081B0100081B0100081B010008F0
:100080001B0100081B0100081B0100081B010008E0
:100090001B0100081B0100081B0100081B010008D0
:1000A0001B0100081B0100081B0100081B010008C0
:1000B0001B010008E11100081B0100081B010008DA
:1000C0001B0100081B0100081B0100081B010008A0
:1000D0001B0100081B0100081B0100081B01000890
:1000E0001B0100081B0100081B010008DFF80CD0F1
:1000F00000F046FA00480047311C00087004002058
:100100000648804706480047FEE7FEE7FEE7FEE7B1
:10011000FEE7FEE7FEE7FEE7FEE7FEE781110008E7
:10012000ED000008F0B480EA0102D40F4200B2EB07
:10013000410F02D20246084611464A0042D0C30D82
:10014000DDB2C1F3C752AD1A202D35DAC1F3160165
:1001500041F4000204B15242C5F1200602FA06F150
:100160002A411044B3EBD05F23D0C4B1012DA0EBE2
:10017000C35009DCF0BC4FF0004202EAC352DBB2CC
:1001800000F5000000F071B9400000F1807000EB54
:10019000C350A0F1807040EAD170490009E04908DD
:1001A00041EAC071A0EBC35000F50000400800EB2D
:1001B000C350F0BC00F050B96142012202EB410192
:1001C000001BF6E7F0BC704781F00041AAE780F021
:1001D0000040A7E780EA010210B502F000434000AA
:1001E00022D04A001FD0010E01EB1261C0F356006D
:1001F000C2F3560240F4000042F40002A0FB0220C9
:1002000000047F39140400D0401C50EA124001D48D
:100210004000491EC2B20C0604EBD010401C40083E
:10022000802A02D003E0002010BD20F00100002948
:1002300000DA0020184310BD30B480EA010202F059
:10024000004530F0004221F0004013D090B1C30DC2
:10025000D40DC2F31601C0F31600E41A41F40001F4
:1002600040F400027D34914201D3641C00E0490057
:10027000002C02DA30BC002070474FF4000000234D
:10028000914201D3891A034340084FEA4101F7D153
:1002900051B1914202D14FF0004105E002D24FF03E
:1002A000010101E06FF0010103EBC450284430BCB0
:1002B00000F0D2B82DE9F04D81EA030404F0004BC0
:1002C00021F0004514464FF0000A23F0004150EAA7
:1002D000050220D054EA01021DD0C5F30A57024698
:1002E000C5F31303C1F31300C1F30A5640F480159C
:1002F00043F48013A7EB0608101BD64608F2FD381E
:1003000073EB050002D308F1010801E092185B418C
:10031000B8F1000F03DA00200146BDE8F08D00209F
:100320004FF48011064684460EE0171B73EB050759
:1003300005D3121B63EB050306434CEA010C490885
:100340004FEA300092185B4150EA0107EDD152EAC2
:10035000030012D082EA040083EA0501084305D0B5
:10036000101BAB4106D20122002306E000224FF011
:10037000004302E06FF0010253101AEB06004CEB51
:10038000085110EB0A0041EB0B01BDE8F04D00F005
:100390009AB896230022114600F067B80EB540F2D5
:1003A000334102910021CDE900110A460B4600F0CD
:1003B00099F803B000BD20F00040C10DC0F3160055
:1003C00040F400007F2901DA00207047962903DC01
:1003D000C1F19601C840704796398840704701F0D6
:1003E000004330B421F0004150EA010206D00A0D6A
:1003F000A2F56072C1F31301002A02DC30BC0020B8
:100400007047440F44EAC104C100E01830BC00EB5F
:10041000C25000F021B80000002801DBC0F100400C
:10042000002901DBC1F100418142704730B50B4624
:10043000014600202022012409E021FA02F59D4214
:1004400005D303FA02F5491B04FA02F52844151EE8
:10045000A2F10102F1DC30BD0029A8BF7047401CA9
:10046000490008BF20F00100704710B4B0FA80FCCA
:1004700000FA0CF050EA010404BF10BC704749B107
:10048000CCF1200421FA04F411FA0CF118BF012177
:1004900021430843A3EB0C01CB1D4FEA00614FEA57
:1004A000102042BF002010BC704700EBC350104426
:1004B0000029A4BF10BC7047401C490008BF20F0B1
:1004C000010010BC704710B5141E73F1000408DA67
:1004D000401C41F1000192185B411A4301D120F008
:1004E000010010BD2DE9F04D92469B4611B1B1FAC5
:1004F00081F202E0B0FA80F22032904600F052F829
:1005000004460F4640EA0A0041EA0B0153465A46A8
:10051000084313D0114653EA010019D0C8F1400234
:10052000504600F04EF805460E46504659464246A3
:1005300000F038F8084305D0012004E02046394691
:10054000BDE8F08D0020054346EAE0762C433743B2
:100550000A986305E40AA0EB08000022FD0A44EAB9
:1005600047540A3002D500200146E9E70105101979
:100570006941DDE9084500196941BDE8F04DA2E790
:10058000064C074D06E0E06840F0010394E80700E0
:1005900098471034AC42F6D3FFF7ACFDAC1D000811
:1005A000CC1D0008202A04DB203A00FA02F10020CA
:1005B00070479140C2F1200320FA03F319439040A1
:1005C0007047202A04DB203A21FA02F0002170470C
:1005D00021FA02F3D040C2F12002914008431946AB
:1005E000704721B1826842F00102826003E08268B4
:1005F00022F001028260704721B1826842F4807269
:10060000826003E0826822F480728260704700009A
:1006100010B504461248844208D10121401500F06B
:10062000BFFC0021601500F0BBFC17E00D488442C0
:1006300008D10121001500F0B3FC0021201500F0C5
:10064000AFFC0BE00848844208D10121C80300F048
:10065000A7FC00214FF4004000F0A2FC10BD0000F8
:100660000024014000280140003C014030B5024612
:100670000020002350680F4C20400D790C6844EA9C
:1006800005242043506090680B4C2040D1E902546F
:100690002C434D7944EA450420439060D06A20F40D
:1006A00070000C7C641EE4B2234340EA0350D06225
:1006B00030BD0000FFFEF0FFFDF7F1FFF0B504468E
:1006C0000D4600200021092D11DDE068A5F10A0684
:1006D00006EB4607072606FA07F18843A5F10A0646
:1006E00006EB460603FA06F10843E0600CE02069D9
:1006F00005EB4507072606FA07F1884305EB450693
:1007000003FA06F108432061072A0FDA606B561ED0
:1007100006EB86071F2606FA07F18843561E06EBEE
:10072000860605FA06F10843606322E00D2A0FDA17
:10073000206BD61F06EB86071F2606FA07F18843B3
:10074000D61F06EB860605FA06F10843206310E083
:10075000E06AA2F10D0606EB86071F2606FA07F1EE
:100760008843A2F10D0606EB860605FA06F108435A
:10077000E062F0BD816841F008018160704721B1FD
:10078000826842F4A002826003E0826822F4A00240
:100790008260704700BFFEE721B1026842F00102AB
:1007A000026004E002684FF6FE731A400260704770
:1007B00001684FF6FE721140016000210160416046
:1007C0008160C1604B49884208D14A49083949686B
:1007D00041F00F01474A083A51608AE04549143117
:1007E000884208D143490839496841F0F001414A3B
:1007F000083A51607DE03F492831884208D13D499F
:100800000839496841F470613A4A083A516070E029
:1008100038493C31884208D136490839496841F4A1
:100820007041344A083A516063E03249503188429D
:1008300008D130490839496841F470212D4A083AF5
:10084000516056E02B496431884208D12949083962
:10085000496841F47001274A083A516049E0254946
:100860007831884208D123490839496841F07061DC
:10087000204A083A51603CE01F49884206D1011FD6
:10088000096841F00F01021F116032E01A4914316A
:10089000884208D11849091F096841F0F001164A39
:1008A000121F116025E014492831884208D11249ED
:1008B000091F096841F470610F4A121F116018E0A6
:1008C0000D493C31884208D10B49091F096841F4A0
:1008D0007041094A121F11600BE0074950318842EC
:1008E00007D10549091F096841F47021024A121F06
:1008F00011607047080002400804024010B5002251
:10090000026847F6F0739A430C6A8B6823430C69BC
:1009100023434C6923438C692343CC6923434C6AAA
:1009200023438C6A23431A430260CB6843600B68FD
:1009300083604B68C36010BD704701B500BF00986D
:10094000411E00910028FAD108BD2DE9F041024670
:1009500000250026002000230024002791F803C072
:100960000CF00F0591F803C00CF0100CBCF1000F57
:1009700003D091F802C04CEA050591F800C0BCF123
:10098000000F31D0146800202BE04FF0010C0CFA5E
:1009900000F3B1F800C00CEA03069E4220D18300A8
:1009A0004FF00F0C0CFA03F7BC4305FA03FC4CEABA
:1009B000040491F803C0BCF1280F06D14FF0010CDC
:1009C0000CFA00FCC2F814C00AE091F803C0BCF1B4
:1009D000480F05D14FF0010C0CFA00FCC2F810C012
:1009E000401C0828D1D31460B1F800C0BCF1FF0F3F
:1009F00034DD546800202EE000F1080C4FF00108AF
:100A000008FA0CF3B1F800C00CEA03069E4221D1AB
:100A100083004FF00F0C0CFA03F7BC4305FA03FCFC
:100A20004CEA040491F803C0BCF1280F05D100F191
:100A3000080C08FA0CF8C2F8148091F803C0BCF155
:100A4000480F07D100F1080C4FF0010808FA0CF824
:100A5000C2F81080401C0828CED35460BDE8F08155
:100A60000246002093680B400BB1012000E00020FB
:100A70007047416170470161704700BFFEE70000A9
:100A800008B50121082000F07BFA10208DF8030042
:100A900001208DF802004FF4E050ADF800006946E7
:100AA0000648FFF752FF14208DF80300FF20ADF831
:100AB000000069460148FFF748FF08BD000C0140EF
:100AC00010B5FFF7DDFF382000F058F80C2000F0DB
:100AD00055F8062000F052F8012000F04FF810BD44
:100AE00070B504460E460EB9E5B202E004F14000CE
:100AF000C5B245F0800000F041F870BD70B5054604
:100B00000E46144644F62060FFF717FF314628468C
:100B1000FFF7E6FF03E014F8010B00F05FF8207820
:100B20000028F8D170BD000010B5FF201249086000
:100B3000891411480C38FFF79CFF4FF400610E48F0
:100B40000C38FFF798FF4FF480610B480C38FFF723
:100B500092FF0120FFF7F1FE00BF802106480C380C
:100B6000FFF77EFF04464FF4806103480C38FFF71F
:100B700080FF002CF1D110BD0C0C014010B50446D3
:100B8000FFF7D2FF4FF480511348FFF772FF4FF485
:100B900000611148FFF76DFF4FF480610E48FFF7C9
:100BA00068FF0120FFF7C9FE4FF480610A48FFF794
:100BB00062FF09480C30006844F47F410840064950
:100BC0000C31086009150448FFF753FF4FF4C87053
:100BD000FFF7B3FE10BD0000000C014010B5044645
:100BE000FFF7A2FF4FF480511048FFF744FF4FF486
:100BF00000610E48FFF73DFF1E20FFF79EFE4FF4F9
:100C000080610A48FFF737FF08480C30006844F459
:100C10007F41084005490C31086009150348FFF77A
:100C200028FF4FF4C870FFF788FE10BD000C01408C
:100C300010B50446FFF778FF4FF480511048FFF7D6
:100C40001AFF4FF400610E48FFF713FF1E20FFF755
:100C500074FE4FF480610A48FFF70DFF08480C301E
:100C6000006844F47F41084005490C3108600915CB
:100C70000348FFF7FEFE4FF4C870FFF75EFE10BD9D
:100C8000000C014000BFFEE77047000070B5002176
:100C900000230F22C47804B3154C246804F4E064E4
:100CA000C4F5E064210AC1F10403CA40447804FA9F
:100CB00003F184781440214309010E4C0678A155B4
:100CC000047804F01F050124AC4005786D11AD00D7
:100CD00005F1E025C5F8004109E0047804F01F059E
:100CE0000124AC40044D0678761145F8264070BDCD
:100CF0000CED00E000E400E080E100E00249014387
:100D0000024A1160704700000000FA050CED00E097
:100D100008B50121042000F033F94FF40060ADF86C
:100D2000000010208DF8030003208DF802006946B2
:100D30000148FFF70AFE08BD000801402DE9F04711
:100D400049480088401C4849088008460088FFF749
:100D500020FB07464548C1683846FFF75DFB01D2D6
:100D6000BDE8F087414A51681068FFF72DFA3F4906
:100D700088610A46D1699069FFF726FA80463B48A8
:100D8000C1694FF08040FFF725FA824637488169F4
:100D90005046FFF71CFA07463448016A3846FFF709
:100DA000C1F90446314988684146FFF713FA814684
:100DB0002E4AD1689068FFF70DFA07462B48016963
:100DC0003846FFF739FA0546284881692846FFF773
:100DD00001FA0546254A51699068FFF7FBF9074675
:100DE0002248C1683846FFF727FA064621463046B2
:100DF000FFF7F0F9064629464846FFF793F90746FC
:100E00003146FFF78FF9194988630A46916BD06B19
:100E1000FFF788F91549C863B1F84000FFF7B9FA40
:100E200007461248C16B3846FFF7F6FA06D20F495B
:100E3000B1F84000FFF7ADFA0C49C8630B49C86B25
:100E40000021FFF7E9FA02D200200849C8630748E9
:100E5000C0690649086208468069C86100200249E5
:100E6000088000BF7CE70000200000202800002050
:100E70000848094908600948C8604FF47A70A1F829
:100E8000400007488860074808610748486100201B
:100E9000C8637047000070422800002000004843EB
:100EA0000000A04000007A450000FA4410B5124846
:100EB0000088401C104908801048B0F8400009889C
:100EC000884202DC00200C4908800B480088FFF7AC
:100ED00060FA04460948C16B2046FFF79DFA05D227
:100EE0004FF400610648FFF7C4FD04E04FF40061D1
:100EF0000348FFF7C0FD10BD1E00002028000020A1
:100F0000000801407047000001460020034A506875
:100F100020F4404008435060704700000010024039
:100F200029B1064A52690243044B5A6104E0034A5C
:100F300052698243014B5A61704700000010024021
:100F400029B1064AD2690243044BDA6104E0034A3C
:100F5000D2698243014BDA61704700000010024001
:100F600029B1064A12690243044B1A6104E0034A9C
:100F700012698243014B1A61704700000010024061
:100F800029B1064A92690243044B9A6104E0034A7C
:100F900092698243014B9A61704700000010024041
:100FA00029B1064AD2680243044BDA6004E0034ADE
:100FB000D2688243014BDA607047000000100240A3
:100FC00030B500210022002400232D4D6D6805F06E
:100FD0000C0121B1042905D0082923D105E0294DB0
:100FE000056022E0274D05601FE0254D6D6805F482
:100FF0007012234D6D6805F48034022505EB924292
:101000001CB9214D554305600BE01D4D6D6805F47D
:1010100000351DB11C4D5543056002E0194D554387
:10102000056002E0174D056000BF00BF144D6D68FC
:1010300005F0F0010909154D6B5C0568DD40456060
:101040000F4D6D6805F4E061090A104D6B5C456851
:10105000DD4085600A4D6D6805F46051C90A0B4D8D
:101060006B5C4568DD40C560054D6D6805F4404129
:10107000890B074D6B5CC568B5FBF3F5056130BDA9
:101080000010024000127A0000093D00000000201C
:1010900010000020704710B500F002F810BD0000ED
:1010A0000CB50020019000903348006840F4803077
:1010B0003149086000BF3048006800F400300090FB
:1010C0000198401C0190009818B90198B0F5A06FE4
:1010D000F1D12948006800F4003010B101200090DF
:1010E00001E0002000900098012843D123480068C7
:1010F00040F01000214908600846006820F0030015
:1011000008600846006840F0020008601A4840681D
:10111000194948600846406848600846406840F4FD
:10112000806048600846406820F47C1048600846AB
:10113000406840F4E81048600846006840F080705D
:10114000086000BF0C48006800F000700028F9D06B
:101150000948406820F00300074948600846406895
:1011600040F00200486000BF0348406800F00C00F7
:101170000828F9D10CBD00000010024000200240F8
:1011800010B51348006840F0010011490860084696
:101190004068104908400E494860084600680E49FA
:1011A00008400B4908600846006820F48020086069
:1011B0000846406820F4FE0048604FF41F00886035
:1011C000FFF769FF4FF000600449086010BD0000A0
:1011D000001002400000FFF8FFFFF6FE08ED00E0FF
:1011E00010B50121074800F013F948B10121054865
:1011F00000F00AF800F076FDFFF7A0FDFFF756FEBD
:1012000010BD000000040040CA430282704721B1B3
:10121000028842F00102028004E002884FF6FE7369
:101220001A4002807047000010B5044668488442A6
:1012300008D10121C014FFF7B3FE0021E014FFF72D
:10124000AFFEC4E0B4F1804F08D101210846FFF79A
:1012500087FE00210120FFF783FEB8E05D4884424D
:1012600008D101210220FFF77BFE00210220FFF7B9
:1012700077FEACE05848844208D101210420FFF7F2
:101280006FFE00210420FFF76BFEA0E0534884426C
:1012900008D101210820FFF763FE00210820FFF795
:1012A0005FFE94E04E48844208D101211020FFF7F0
:1012B00057FE00211020FFF753FE88E04948844282
:1012C00008D101212020FFF74BFE00212020FFF74D
:1012D00047FE7CE04448844208D101214014FFF7D6
:1012E0005FFE00216014FFF75BFE70E03F48844220
:1012F00009D10121C804FFF753FE00214FF400205B
:10130000FFF74EFE63E03A48844209D10121080507
:10131000FFF746FE00214FF48010FFF741FE56E034
:101320003448844209D101214805FFF739FE0021E4
:101330004FF40010FFF734FE49E02F48844208D1F3
:1013400001214020FFF70CFE00214020FFF708FE9E
:101350003DE02A48844208D101218020FFF700FEA9
:1013600000218020FFF7FCFD31E02548844208D1B0
:1013700001218015FFF7F4FD0021A015FFF7F0FD16
:1013800025E02048844209D101210804FFF708FE26
:1013900000214FF48030FFF703FE18E01A48844222
:1013A00009D101214804FFF7FBFD00214FF4003073
:1013B000FFF7F6FD0BE01548844208D101218804AF
:1013C000FFF7EEFD00214FF48020FFF7E9FD10BD8F
:1013D000002C01400004004000080040000C0040C8
:1013E000001000400014004000340140004C014057
:1013F000005001400054014000180040001C004013
:1014000000200040004001400044014000480140ED
:1014100002460020138A0B400BB1012000E000209F
:1014200070471AB183890B43838102E083898B4320
:1014300083817047002202881D4B98420ED01D4BBD
:1014400098420BD0B0F1804F08D01B4B984205D08A
:101450001A4B984202D01A4B984204D14FF68F7320
:101460001A404B881A43174B984207D0164B9842A4
:1014700004D04FF6FF431A40CB881A4302808B8872
:1014800083850B8803850A4B98420BD0094B984201
:1014900008D00E4B984205D00D4B984202D00D4B10
:1014A000984201D10B7A03860123838270470000A2
:1014B000002C0140003401400004004000080040BE
:1014C000000C0040001000400014004000400140AB
:1014D00000440140004801401FB501210220FFF7F0
:1014E0002FFD0920ADF808004720ADF804000020CA
:1014F000ADF80A00ADF806000F48FFF795FE01A908
:101500000D48FFF797FF01210B48FFF780FE0122EE
:1015100011460948FFF785FF1D208DF800000120C6
:101520008DF8010002208DF8020001208DF80300E3
:101530006846FFF7ABFB1FBD0004004001F40072DA
:10154000B2F5007F00D100BFCA430280704721B1CD
:10155000828942F40052828104E082894DF6FF7351
:101560001A4082817047000010B50446204884422A
:1015700009D101218803FFF713FD00214FF48040BA
:10158000FFF70EFD32E01B48844209D101214804D7
:10159000FFF7E6FC00214FF40030FFF7E1FC25E007
:1015A0001548844209D101218804FFF7D9FC0021A4
:1015B0004FF48020FFF7D4FC18E01048844209D192
:1015C0000121C804FFF7CCFC00214FF40020FFF7F5
:1015D000C7FC0BE00A48844208D101210805FFF747
:1015E000BFFC00214FF48010FFF7BAFC10BD0000D3
:1015F000003801400044004000480040004C0040DA
:101600000050004002460020B1F5007F00D100BF2D
:1016100013880B400BB1012000E000207047000050
:101620002DE9F04786B005460E460024A24600BFCD
:10163000A1460027B08900B100BF2F462C8A4CF686
:10164000FF700440F08804432C82AC894EF6F310FE
:101650000440B08831890843718908430443AC8150
:10166000AC8A4FF6FF400440B0890443AC8201A825
:10167000FFF7A6FC1F48874202D1DDF810A001E069
:10168000DDF80CA0A88900F4004040B10AEBCA00C4
:1016900000EB0A1031684900B0FBF1F807E00AEBF3
:1016A000CA0000EB0A1031688900B0FBF1F8642031
:1016B000B8FBF0F004012009642101FB1089A8891E
:1016C00000F4004040B1322000EBC900B0FBF1F063
:1016D00000F00700044308E0322000EB0910642109
:1016E000B0FBF1F000F00F0004432C8106B0BDE820
:1016F000F087000000380140C1F308028280704783
:1017000000BFFEE70FB4054B10B503A9044A0298C9
:1017100000F02CF810BC5DF814FB00000D1C000854
:10172000240000200FB4084B10B504A902AA0398A6
:1017300000F01CF8044602A9002000F0B8F9204689
:1017400010BC5DF814FB0000AF1A000802E008C8E6
:10175000121F08C1002AFAD170477047002001E02B
:1017600001C1121F002AFBD1704700002DE9FF4F75
:101770008BB088460546002606E025280BD0DDE91B
:101780000D1290476D1C761C28780028F5D10FB0FB
:101790003046BDE8F08F0024A146A2460122AE49A2
:1017A00000E0044315F8013F203B02FA03F0084231
:1017B000F7D128782A2810D06FF02F022878A0F1CE
:1017C0003001092915D809EB890102EB410144F0E8
:1017D000020400EB01096D1CF0E758F8041B5FEAF6
:1017E000010903D544F40054C9F1000944F002048E
:1017F0006D1C28782E2817D115F8010F44F0040429
:101800002A280ED06FF02F022878A0F13001092984
:101810000AD80AEB8A0102EB410100EB010A6D1CB8
:10182000F2E758F804AB6D1C28786C280FD006DC62
:101830004C2817D068280DD06A2814D104E07428E9
:1018400010D07A280FD10DE044F400140AE044F4DB
:10185000801401E044F440146978814202D104F517
:1018600080146D1C6D1C2878692865D006DC002862
:101870008DD0632827D0642806D15DE06E2808D07B
:1018800073282AD0752877D0DDE90D129047761C91
:10189000E0E0C4F30250022809D003280DD0D8F8A4
:1018A000001004280DD00E6008F10408D2E0D8F82A
:1018B0000010F217C1E90062F6E7D8F800100E80B8
:1018C000F2E70E70F0E718F8041B8DF80010002006
:1018D0008DF80100EB46012003E058F804BB4FF0FF
:1018E000FF3061074FF0000701D40AE07F1C574525
:1018F0000DDA8742FADB1BF807100029F6D106E063
:101900007F1C8742FCDB1BF807100029F8D1DDE9BA
:101910000D23A9EB07008146214600F0B1F83044C1
:10192000C61904E0DDE90D121BF8010B90477F1E7C
:10193000F8D22146484688E058F8040BC4F3025117
:101940004FF00A0B032900D100B2042900D140B2A4
:10195000002802DA40422D2102E0210505D52B2185
:101960008DF82410012104E006E0E10710D02021C9
:10197000F6E708AF089113E058F8040BC4F30251DE
:101980004FF00A0B032900D180B2042900D1C0B264
:101990000021EEE75946FEF749FD303107F8011DF9
:1019A0000028F7D1ADEB070000F1200B600702D54E
:1019B00024F4803401E04FF0010ADA4502DDAAEB9D
:1019C0000B0000E00020824600EB0B010898014468
:1019D000A9EB01000A90E00306D4DDE90D232146BE
:1019E0000A9800F04DF806444FF0000908E009A9F4
:1019F00011F80900DDE90D12904709F10109761C83
:101A000008998945F3DBE0030CD5DDE90D23214678
:101A10000A9800F035F8064404E0DDE90D123020A4
:101A20009047761CBAF10001AAF1010AF5DC05E045
:101A3000DDE90D1217F8010B9047761CBBF1000190
:101A4000ABF1010BF4DC0A982146DDE90D2300F02F
:101A500005F806446D1C97E6092801002DE9F041C0
:101A6000044600251E461746880404D405E039467E
:101A70002020B0476D1C641EF9D52846BDE8F081D2
:101A80002DE9F041044600251E469046C80301D5C5
:101A9000302700E02027880404D505E04146384679
:101AA000B0476D1C641EF9D52846BDE8F0810A6870
:101AB000531C0B601070704700B58BB001210846B5
:101AC000FFF72EFA1148FEF773FE114800901148F7
:101AD00001900020029004200390002004908020B8
:101AE000059040000690800007902020089000029A
:101AF000099000200A9069460448FEF7FFFE012184
:101B00000248FEF749FE0BB000BD0000080002408D
:101B10004C240140140000202DE9F0474FF000094B
:101B2000002404E0104830F814008144641C042CA4
:101B3000F8DB09EBC90000EB09194846FEF72EFC5B
:101B400007460022094BFEF7B5FB05460E4600226C
:101B5000074B28463146FEF7ADFB05460E462846A4
:101B60003146BDE8F087000014000020009889404D
:101B70000000104000B587B001214FF40170FFF75D
:101B8000FFF90120ADF8180003208DF81A0000209D
:101B90008DF81B0006A91B48FEF7D7FE4FF4404006
:101BA000FFF7B2F91848FEF733FD0020019001203D
:101BB0008DF808008DF809004FF460200390002094
:101BC000049001208DF8140001A90F48FEF74EFD86
:101BD0000723012200210C48FEF770FD01210A486D
:101BE000FEF70AFD01210848FEF7FBFC0648FEF758
:101BF000C1FDFFF761FF01210348FEF7C0FD07B0FB
:101C000000BD0000000801400024014070B50446FA
:101C10000D46E1B20548FFF76FFD00BF8021034884
:101C2000FFF7F0FC0028F9D0204670BD00380140D5
:101C30004FF4E060FFF762F800F076F8FFF79AFFE4
:101C4000FEF73EFFFFF714F9FFF762F8FFF744FCD9
:101C50001C490868FEF7AFFB05462A461AA148460C
:101C6000FFF760FD4A4600210420FEF747FFDF2012
:101C7000FEF7DEFF4320FEF7B1FF002421E0601CE9
:101C800084B210494868FEF796FB8346FEF781FB55
:101C900080460C4841684046FEF799FA07460C49D1
:101CA000FEF798FA0646FEF786FB054605494868A2
:101CB000FEF781FB82462B465246214605A0FFF7E0
:101CC00021FDDCE7280000205345543A256400003C
:101CD00000007A442564203A2025642E252D3364A3
:101CE0000D00000070B50E480088401C0C490880AB
:101CF00008460088FEF74DFB04460A48C1682046A6
:101D0000FEF78AFB00D270BDFFF706FF0446FEF720
:101D100066FB0449486000200149088000BFF2E7E3
:101D20001C0000202800002000B585B0012144F2ED
:101D30000400FFF725F94FF40070ADF810001820EB
:101D40008DF8130004A91748FEF7FFFD4FF48060DB
:101D5000ADF8100004208DF8130004A91148FEF717
:101D6000F4FD1148FFF700FC40F22A4000900020EB
:101D7000ADF80400ADF80600ADF80800ADF80C00B1
:101D80000C20ADF80A0069460748FFF749FC01211D
:101D90000548FFF7DCFB40210348FFF7CFFB05B008
:101DA00000BD00000008014000380140CC1D0008C3
:101DB00000000020280000004C170008F41D000857
:101DC00028000020480400005C1700080000000004
:101DD00001020304010203040607080902040608BD
:101DE00000000000000000000000000000000000F3
:041DF00000000000EF
:0400000508000101ED
:00000001FF
