:03000000020900F2
:0C090000787FE4F6D8FD7581720209478B
:0C0D9E00000000000000FFFE000000004C
:100D78000B1A303132333435363738390004103FE6
:030D8800800000E8
:0F0D2E008F807F0A7E00120D3DD2A77F0A7E00C4
:0D0D3D00EFD3940040077E6EDEFE1F80F3B2
:010D4A002286
:100D8C00EFD39400400B7E6E7D1EDDFEDEFA1F80DD
:010D9C00EF67
:010D9D002233
:100D6300C2B77F46AE071FEE70FAD2B77F04AE0755
:040D73001FEE70FA05
:010D77002259
:0C0CA100120D637F017E00120D3D7FCC20
:100CAD00E4FDC2B7EF1392B77E06AC061EEC70FAE8
:0A0CBD00D2B7EFC313FF0DBD08E826
:010CC700220A
:100CC800E4FDC2B7D2B7A2B7E433C4333333548098
:100CD800FCEEC3134CFE7F04AC071FEC70FA0DBD8D
:040CE80008E0AF066B
:010CEC0022E5
:08000300120CA17F44020CADB8
:080DAA00120CA17FBE020CAD8A
:100C4800120003120DAA120CC8AB07120CC8EFFE53
:100C5800EBFFAD07AC06EC12032AE4FBFA79C8787F
:100C680040120106E4FBFAF9783F120015120363FB
:010C78002259
:100B7B00120363AB07AA067C007D641204DA8F466E
:100B8B007C007D64AF03AE021204DA7E007F0ACFD5
:100B9B00CDCFCECCCE1204DA8F47AF4CAE4BAD4A95
:100BAB00AC491203637C007D0A1204DA8D487FC0C6
:080BBB00C2A6120D2EC2A722F2
:10098C00AF41AE40AD3FAC3E120363AB07AA067C51
:10099C00007D641204DA8F467C007D64AF03AE02E6
:1009AC001204DA7E007F0ACFCDCFCECCCE1204DA81
:1009BC008F47AF41AE40AD3FAC3E1203637C007D30
:1009CC000A1204DA8D487F80120BBB7F73120A0B5C
:1009DC007F65120A0B7F74120A0B7F3A120A0B7F87
:1009EC0010120A0B741A2546F8E6FF120A0B741A39
:0F09FC002547F8E6FF120A0B741A2548F8E6FFA4
:080A0B00D2A6120D2EC2A72293
:100D4B00C2A5C2A77F38120BBB7F0C120BBB7F0651
:080D5B00120BBB7F01020BBB70
:0406FE008E658F6610
:1007020078677C007D007BFF7A0D799E7E007F0CEE
:100712001204B47F80120BBB7F2B120A0BAE65AFA3
:10072200667C277D1012052F8E678F68AE65AF66D7
:100732007C277D1012052F7E037FE8CFCDCFCECC54
:10074200CE12052F8E698F6AAE65AF667C037DE897
:1007520012052F7E007F64CFCDCFCECCCE12052FD7
:100762008E6B8F6CAE65AF667C007D6412052F7E4A
:10077200007F0ACFCDCFCECCCE12052F8E6F8F70D9
:10078200AE65AF667C007D0A12052F8C718D727F7B
:1007920081120BBBE4F53DE53D25E02467F808E650
:0F07A2002430FF120A0B053DE53DC3940640E8E5
:0107B1002225
:100B2D007F647E00120D3D050DE50DB40503750DB9
:100B3D0001E50DB4010A7FC4120BBB7F0F120BBB75
:100B4D00E50DB4020A7FC5120BBB7F0F120BBBE57F
:100B5D000DB4030A7FC7120BBB7F0F120BBBE50D44
:0E0B6D00B4040A7FC8120BBB7F0F120BBB2211
:100A7C007F647E00120D3DE50D24FE60181460238A
:100A8C0014602E240370410519E519B40A03E4F52A
:100A9C0019E5198028052CE52CB40A03E4F52CE59E
:100AAC002C801A0514E514B40A03E4F514E514803B
:100ABC000C0525E525B40A03E4F525E5252430FFCE
:090ACC00120A0B7F10120BBB2271
:100A13007F647E00120D3DE50D24FE601C14602BE7
:100A230014603A240370511519C3E5196480948046
:100A33005003751909E5198034152CC3E52C64801E
:100A430094805003752C09E52C80221514C3E514FA
:100A5300648094805003751409E51480101525C330
:100A6300E525648094805003752509E5252430FF2E
:090A7300120A0B7F10120BBB22CA
:100C0900E4F530F52F752E20752D41F534753350E7
:100C19007532C3753147F52BF52A75297A7528443C
:100C2900F545F544754348754242F541F540753F30
:0F0C390070753E42F53CF53B753AC8753942225D
:100CED00E4F54DD295D297C295C29700D29775B0C3
:100CFD00FFD296C29600AFB0D296D295EFC313FF36
:010D0D0022C3
:10057300AC0EAD0FE412032AA804A905AA06AB0723
:10058300AF41AE40AD3FAC3E1200118F508E4F8D48
:100593004E8C4DAF0CAE0BAD0AAC09AB50AA4FA9B4
:1005A3004EA84D1200158F0C8E0B8D0A8C09AF507F
:1005B300AE4FAD4EAC4DAB30AA2FA92EA82D1201D4
:1005C300068F548E538D528C51AB34AA33A932A863
:1005D30031AF45AE44AD43AC4212020F8F608E5F24
:1005E3008D5E8C5DAB30AA2FA92EA82D1201068F2C
:1005F300608E5F8D5E8C5DAF0CAE0BAD0AAC09AB4C
:1006030060AA5FA95EA85D1201068F588E578D56AA
:100613008C55AB45AA44A943A842AF2BAE2AAD29BA
:10062300AC2812020F8F648E638D628C61AB30AA8B
:100633002FA92EA82D1201068F648E638D628C6103
:10064300AB38AA37A936A835AF50AE4FAD4EAC4D37
:10065300120011AB64AA63A962A8611201068F5C40
:100663008E5B8D5A8C59AF58AE57AD56AC55AB54C3
:10067300AA53A952A851120015AB5CAA5BA95AA8A8
:10068300591200158F4C8E4B8D4A8C4985503885F5
:100693004F37854E36854D35AF3CAE3BAD3AAC3921
:1006A300AB4CAA4BA94AA8491202AC600F400D8576
:1006B3003C4C853B4B853A4A85394922E4FFFEFD94
:1006C300FCAB4CAA4BA94AA8491202AC700D851386
:1006D3004C85124B85114A85104922E4FFFE7DC8E3
:1006E3007CC2AB4CAA4BA94AA8491202AC500BE4FA
:0A06F300F54CF54B754AC87549C275
:0106FD0022DA
:100D0E00E4FFFEFDFCAB4CAA4BA94AA8491202AC6B
:100D1E00500DD2A3C2A47F107E27120D8CD2A42216
:10085E0012098CAE0EAF0F7C007D641204DA8F4647
:10086E00AE0EAF0F7C007D641204DA7E007F0ACFDD
:10087E00CDCFCECCCE1204DA8F47AE0EAF0F7C00AA
:10088E007D0A1204DA8D487F89120BBB7F6E120A25
:10089E000B7F6F120A0B7F77120A0B7F3A1209ED4C
:1008AE00E4FFFEFDFCAB4CAA4BA94AA8491202ACD0
:1008BE00AF4CAE4BAD4AAC49401B120B7B7F701256
:1008CE000A0B7F77120A0B7F6D120A0B7F3A120A00
:1008DE000B7F108019120B7B7F70120A0B7F771221
:1008EE000A0B7F6D120A0B7F3A120A0B7F2D12092B
:0208FE00ED22E9
:100AD500E4FFFEFDFCAB4CAA4BA94AA8491202ACA7
:100AE50040450508AC08E412032FAB3CAA3BA93AE4
:100AF500A8391202AC5003E4F508AC08E412032F40
:100B0500AB4CAA4BA94AA8491202AC60054003C2E6
:100B1500A322AC08E412032FAB4CAA4BA94AA8495F
:070B25001202AC5002D2A342
:010B2C0022A6
:1007B20030900302085D7F057E00120D3D309003EC
:1007C20002085D3090FD12098C7F887E13120D3D68
:1007D2007F85120BBB7F2D120A0B7F2D120A0B7F16
:1007E2002D120A0B7F887E13120D3D2091277F0563
:1007F2007E00120D3D2091033091FDAF41AE40AD20
:100802003FAC3EE4FBFA7980783F1200158F418EAF
:10081200408D3F8C3E2092277F057E00120D3D20A9
:1008220092033092FDAF41AE40AD3FAC3EE4FBFAE5
:100832007980783F1200118F418E408D3F8C3E208F
:10084200930F7F057E00120D3D20930F20930C80A5
:0C085200FB7F057E00120D3D0207C8224E
:100C7900758901758CD5758A6BD2A9D28CD2AF12C0
:100C89000C09120D4B120CED750E008F0F12057326
:080C9900120D0E12085E80ED41
:03000B00020BC322
:100BC300C0E0C0F0C083C082C0D075D000C000C0F8
:100BD30001C002C003C004C005C006C007758CD5A0
:100BE300758A6B120AD51207B2D2AFD007D006D0DE
:100BF30005D004D003D002D001D000D0D0D082D011
:060C030083D0F0D0E032C6
:10000E000203CFE86480F8E933E83360110460F04E
:10001E00ED33EC337009E8FCE9FDEAFEEBFF220458
:10002E0060DED3EB9FEA9EE99DE8C2E78CF0C2F753
:10003E0095F0400CE8CCF8E9CDF9EACEFAEBCFFB1F
:10004E0012039A85D0F05804700320D5B3E80470DB
:10005E00075002B2D50203D992D5EC0460F7E4CC76
:10006E00C0E0C398F8603B94186008400DD0E0FBE8
:10007E000203B1E4FBFAC9FC8028E830E406E4C9C7
:10008E00FBE4CAFCE830E305E4C9CACBFCE854073C
:10009E006010F8C3E913F9EA13FAEB13FBEC13FC47
:1000AE00D8F130F52FC3E49CFCEF9BFFEE9AFEEDEA
:1000BE0099FDD0E0FBEF4E4D4C701222DB03020394
:1000CE00D6EC2CFCEF33FFEE33FEED33FDED30E7D7
:1000DE00EB0203B1EF2BFFEE3AFEED39FDD0E0FB64
:1000EE0050130BBB00030203D9ED13FDEE13FEEF0D
:0800FE0013FFEC13FC0203B137
:10010600EC4D6011E8497017ED33EC3304600DE4F3
:10011600FCFFFEFD22E933E8330470F80203CF1238
:10012600039A58046009E4CC248150062850090239
:1001360003D92840030203D6C0E0EB4A7044B980D5
:1001460006D0E0FB0203C5EF4E701CBD8008EBFF36
:10015600EAFEE9FD80EBE98DF0A4FEE5F00201EF91
:10016600E9CDF9EAFEEBFFEF89F0A4FCE5F0CE89D4
:10017600F0A42EFFE435F0CD89F0A42DFEE435F091
:100186008067EF4E7005BD80D780C3EF8BF0A4ACBF
:10019600F0EE8BF0A42CFCE435F0F8EF8AF0A42CFA
:1001A600E5F038FCE433CB8DF0A42CFCE5F03BF80D
:1001B600EE8AF0A42CFCE5F038F8E433CF89F0A4FD
:1001C6002CFCE5F038CF3400CE89F0A42FFFE5F003
:1001D6003EFEE433C98DF0A42EFEE5F039CD8AF05B
:1001E600A42FFFE5F03EFEE43DFD33D0E0FB5007D3
:1001F6000BBB000F0203D9EC2CFCEF33FFEE33FEF2
:06020600ED33FD0203B11F
:10020C000203D9EC5D046005E8590470030203CFC6
:10021C0012039A580460F6EC4860F2EC7004FDFE90
:10022C00FF22C860DB2481C85009C39860025006C5
:10023C000203D69850CAF582E9294B4A7005AB8265
:10024C000203C575F0007C1A7880C3EF9BEE9AED23
:10025C0099400DC3EF9BFFEE9AFEED99FDE842F03D
:10026C00DC23ACF0D0E0FFD0E0FED0E0FDAB822090
:10027C00E7101BEB60BAEC2CFCEF33FFEE33FEED1A
:10028C0033FD0203B1E803F830E705C0F075F00068
:10029C00EF2FFFEE33FEED33FD40B830E7C280AAFE
:1002AC0074F8CC6480CCC86480C8F58204604FC3F9
:1002BC00EB9FF5F0EA9E42F0E99D42F0E89C45F098
:1002CC00603C501DE5825FFFE582D313CB5BCBF422
:1002DC002B5582FB50280ABA002409B9002008804B
:1002EC001DE5825BFBE582D313CF5FCFF4C3132FE5
:1002FC005582FF50090EBE00050DBD00010CC3EB6D
:10030C009FF5F0EA9E42F0E99D42F0E89C45F060D2
:09031C0007CC4820E701B3EC22F4
:1003250075F020800E75F010800575F0087D007E53
:10033500007F003392D530D503120565EC334010AC
:10034500EF33FFEE33FEED33FDEC33FCD5F0ED225C
:0E035500E5F0247EA2D513CC92E7CDCEFF2298
:10036300EDD2E7CD33EC3392D524814006E4FFFE92
:10037300FDFC22FCE4CFCECDCC24E0501174FF80F1
:10038300EDC3CC13CCCD13CDCE13CECF13CF04708E
:07039300F030D5DE02056524
:10039A00E9D2E7C933E833F892D5EDD2E7CD33ECA9
:0703AA0033FC5002B2D52222
:1003B100EC30E7100FBF000C0EBE00080DBD0004AD
:1003C1000BEB6014A2D5EB13FCED92E7FD2274FF59
:1003D100FCFDFEFF22E480F8A2D574FF13FC7D80B2
:0303E100E480EFC6
:10090C00020C79E493A3F8E493A34003F68001F27C
:10091C0008DFF48029E493A3F85407240CC8C333EC
:10092C00C4540F4420C8834004F456800146F6DFBB
:10093C00E4800B0102040810204080900D78E47EC6
:10094C00019360BCA3FF543F30E509541FFEE493B0
:10095C00A360010ECF54C025E060A840B8E493A377
:10096C00FAE493A3F8E493A3C8C582C8CAC583CAA2
:10097C00F0A3C8C582C8CAC583CADFE9DEE780BE5A
:010D8B000067
:1003E400E709F608DFFA8046E709F208DFFA803EFB
:1003F40088828C83E709F0A3DFFA8032E309F608E8
:10040400DFFA8078E309F208DFFA807088828C834F
:10041400E309F0A3DFFA806489828A83E0A3F60803
:10042400DFFA805889828A83E0A3F208DFFA804CDD
:1004340080D280FA80C680D4806980F280338010B4
:1004440080A680EA809A80A880DA80E280CA80331D
:1004540089828A83ECFAE493A3C8C582C8CCC58395
:10046400CCF0A3C8C582C8CCC583CCDFE9DEE78065
:100474000D89828A83E493A3F608DFF9ECFAA9F0E4
:10048400EDFB2289828A83ECFAE0A3C8C582C8CC3A
:10049400C583CCF0A3C8C582C8CCC583CCDFEADE53
:1004A400E880DB89828A83E493A3F208DFF980CCB5
:1004B40088F0EF60010E4E60C388F0ED2402B404AE
:1004C4000050B9F582EB2402B4040050AF23234555
:0604D40082239004347342
:1004DA00BC000BBE0029EF8DF084FFADF022E4CC06
:1004EA00F875F008EF2FFFEE33FEEC33FCEE9DECCF
:1004FA00984005FCEE9DFE0FD5F0E9E4CEFD22ED15
:10050A00F8F5F0EE8420D21CFEADF075F008EF2F5E
:10051A00FFED33FD4007985006D5F0F222C398FD4F
:05052A000FD5F0EA22EC
:10052F00C2D5EC30E709B2D5E4C39DFDE49CFCEEE7
:10053F0030E715B2D5E4C39FFFE49EFE1204DAC381
:10054F00E49DFDE49CFC80031204DA30D507C3E47C
:06055F009FFFE49EFE2256
:0E056500C3E49FFFE49EFEE49DFDE49CFC22A7
:00000001FF
