:030000000208569D
:0C085600787FE4F6D8FD75817402089DDF
:0C0CFD00000000000000FFFE00000000EE
:100CD7000B1A303132333435363738390004103F88
:030CE7008000008A
:0F0C77008F807F0A7E00120C86D2A77F0A7E0034
:0D0C8600EFD3940040077E6EDEFE1F80F36A
:010C9300223E
:040CAC007F107E2710
:100CB000EFD39400400B7E6E7D1EDDFEDEFA1F80BA
:010CC000EF44
:010CC1002210
:100CC200C2B77F46AE071FEE70FAD2B77F04AE07F7
:040CD2001FEE70FAA7
:010CD60022FB
:0C0C0A00120CC27F017E00120C867FCC11
:100C1600E4FDC2B7EF1392B77E06AC061EEC70FA7F
:0A0C2600D2B7EFC313FF0DBD08E8BD
:010C300022A1
:100C3100E4FDC2B7D2B7A2B7E433C433333354802F
:100C4100FCEEC3134CFE7F04AC071FEC70FA0DBD24
:040C510008E0AF0602
:010C5500227C
:08000300120C0A7F44020C16E6
:080D0900120C0A7FBE020C1659
:100B8000120003120D09120C31AB07120C31EFFEEB
:100B9000EBFFAD07AC06EC12032AE4FBFA79C87848
:100BA00040120106E4FBFAF9783F120015120363C4
:010BB0002222
:100AB600120363AB07AA067C007D641204DA8F4634
:100AC6007C007D64AF03AE021204DA7E007F0ACF9B
:100AD600CDCFCECCCE1204DA8F47AF4CAE4BAD4A5B
:100AE600AC491203637C007D0A1204DA8D487FC08C
:080AF600C2A6120C77C2A72270
:0A0CEB00120AF6741A2546F8E6FF17
:080CF500D2A6120C77C2A7225F
:100C9400C2A5C2A77F38120AF67F0C120AF67F0695
:080CA400120AF67F01020AF6B4
:0406FE008E658F6610
:1007020078677C007D007BFF7A0C79FD7E007F0C90
:100712001204B47F80120AF67F2B120CF5AE65AF7D
:10072200667C277D1012052F8E678F68AE65AF66D7
:100732007C277D1012052F7E037FE8CFCDCFCECC54
:10074200CE12052F8E698F6AAE65AF667C037DE897
:1007520012052F7E007F64CFCDCFCECCCE12052FD7
:100762008E6B8F6CAE65AF667C007D6412052F7E4A
:10077200007F0ACFCDCFCECCCE12052F8E6F8F70D9
:10078200AE65AF667C007D0A12052F8C718D727F7B
:1007920081120AF6E4F53DE53D25E02467F808E616
:0F07A2002430FF120CF5053DE53DC3940640E8F9
:0107B1002225
:100A68007F647E00120C86050DE50DB40503750D37
:100A780001E50DB4010A7FC4120AF67F0F120AF6C7
:100A8800E50DB4020A7FC5120AF67F0F120AF6E5D1
:100A98000DB4030A7FC7120AF67F0F120AF6E50D96
:0E0AA800B4040A7FC8120AF67F0F120AF62263
:1009B7007F647E00120C86E50D24FE601814602308
:1009C70014602E240370410519E519B40A03E4F5F0
:1009D70019E5198028052CE52CB40A03E4F52CE564
:1009E7002C801A0514E514B40A03E4F514E5148001
:1009F7000C0525E525B40A03E4F525E5252430FF94
:090A0700120CF57F10120AF62210
:10094E007F647E00120C86E50D24FE601C14602B65
:10095E0014603A240370511519C3E519648094800C
:10096E005003751909E5198034152CC3E52C6480E4
:10097E0094805003752C09E52C80221514C3E514C0
:10098E00648094805003751409E51480101525C3F6
:10099E00E525648094805003752509E5252430FFF4
:0909AE00120CF57F10120AF6226A
:1008E200E4F574859073E573F460077F057E00126A
:1008F2000C86859073E57364F77050E590B4FFFB46
:100902000574859073E573F460077F057E00120C11
:1009120086859073E573F4602BE573B4F702057472
:10092200E574B402057F0C020AF6E5732405601132
:1009320024FE600814700D120A6880081209B7803C
:0B0942000312094EE590F460B980F943
:01094D002287
:100B4100E4F530F52F752E20752D41F534753350B0
:100B51007532C3753147F52BF52A75297A75284405
:100B6100F545F544754348754242F541F540753FF9
:0F0B710070753E42F53CF53B753AC87539422226
:100C5600E4F54DD295D297C295C29700D29775B05A
:100C6600FFD296C29600AFB0D296D295EFC313FFCD
:010C7600225B
:10057300AC0EAD0FE412032AA804A905AA06AB0723
:10058300AF41AE40AD3FAC3E1200118F508E4F8D48
:100593004E8C4DAF0CAE0BAD0AAC09AB50AA4FA9B4
:1005A3004EA84D1200158F0C8E0B8D0A8C09AF507F
:1005B300AE4FAD4EAC4DAB30AA2FA92EA82D1201D4
:1005C300068F548E538D528C51AB34AA33A932A863
:1005D30031AF45AE44AD43AC4212020F8F608E5F24
:1005E3008D5E8C5DAB30AA2FA92EA82D1201068F2C
:1005F300608E5F8D5E8C5DAF0CAE0BAD0AAC09AB4C
:1006030060AA5FA95EA85D1201068F588E578D56AA
:100613008C55AB45AA44A943A842AF2BAE2AAD29BA
:10062300AC2812020F8F648E638D628C61AB30AA8B
:100633002FA92EA82D1201068F648E638D628C6103
:10064300AB38AA37A936A835AF50AE4FAD4EAC4D37
:10065300120011AB64AA63A962A8611201068F5C40
:100663008E5B8D5A8C59AF58AE57AD56AC55AB54C3
:10067300AA53A952A851120015AB5CAA5BA95AA8A8
:10068300591200158F4C8E4B8D4A8C4985503885F5
:100693004F37854E36854D35AF3CAE3BAD3AAC3921
:1006A300AB4CAA4BA94AA8491202AC600F400D8576
:1006B3003C4C853B4B853A4A85394922E4FFFEFD94
:1006C300FCAB4CAA4BA94AA8491202AC700D851386
:1006D3004C85124B85114A85104922E4FFFE7DC8E3
:1006E3007CC2AB4CAA4BA94AA8491202AC500BE4FA
:0A06F300F54CF54B754AC87549C275
:0106FD0022DA
:100BB100E4FFFEFDFCAB4CAA4BA94AA8491202ACCA
:100BC100501ED2A3C2A4D2A0120CACC2A0D2A112B8
:100BD1000CACC2A1D2A2120CACC2A2D2A4120CAC17
:010BE10022F1
:1007B200AE0EAF0F7C007D641204DA8F46AE0EAF30
:1007C2000F7C007D641204DA7E007F0ACFCDCFCE8B
:1007D200CCCE1204DA8F47AE0EAF0F7C007D0A1228
:1007E20004DA8D487F80120CEB7F81120AF6741AAC
:1007F2002547F8E6FF120CF57F82120AF6741A25D5
:1008020048F8E6FF120CF5E4FFFEFDFCAB4CAA4BE8
:10081200A94AA8491202ACAF4CAE4BAD4AAC494012
:1008220007120AB67F108005120AB67F2D120CF548
:100832007FC1120CEB7FC2120AF6741A2547F8E642
:10084200FF120CF57FC3120AF6741A2548F8E6FF68
:04085200120CF5226D
:100A1000E4FFFEFDFCAB4CAA4BA94AA8491202AC6C
:100A200040450508AC08E412032FAB3CAA3BA93AA9
:100A3000A8391202AC5003E4F508AC08E412032F05
:100A4000AB4CAA4BA94AA8491202AC60054003C2AC
:100A5000A322AC08E412032FAB4CAA4BA94AA84925
:070A60001202AC5002D2A308
:010A6700226C
:100BE200758901758CD5758A6BD2A9D28CD2AF1258
:100BF2000B41120C94120C56750E008F0F120573D6
:080C0200120BB11207B280EDE4
:03000B00020AFEE8
:100AFE00C0E0C0F0C083C082C0D075D000C000C0BE
:100B0E0001C002C003C004C005C006C007758CD565
:100B1E00758A6B120A10D2AFD007D006D005D0045A
:100B2E00D003D002D001D000D0D0D082D083D0F06C
:030B3E00D0E032D2
:10000E000203CFE86480F8E933E83360110460F04E
:10001E00ED33EC337009E8FCE9FDEAFEEBFF220458
:10002E0060DED3EB9FEA9EE99DE8C2E78CF0C2F753
:10003E0095F0400CE8CCF8E9CDF9EACEFAEBCFFB1F
:10004E0012039A85D0F05804700320D5B3E80470DB
:10005E00075002B2D50203D992D5EC0460F7E4CC76
:10006E00C0E0C398F8603B94186008400DD0E0FBE8
:10007E000203B1E4FBFAC9FC8028E830E406E4C9C7
:10008E00FBE4CAFCE830E305E4C9CACBFCE854073C
:10009E006010F8C3E913F9EA13FAEB13FBEC13FC47
:1000AE00D8F130F52FC3E49CFCEF9BFFEE9AFEEDEA
:1000BE0099FDD0E0FBEF4E4D4C701222DB03020394
:1000CE00D6EC2CFCEF33FFEE33FEED33FDED30E7D7
:1000DE00EB0203B1EF2BFFEE3AFEED39FDD0E0FB64
:1000EE0050130BBB00030203D9ED13FDEE13FEEF0D
:0800FE0013FFEC13FC0203B137
:10010600EC4D6011E8497017ED33EC3304600DE4F3
:10011600FCFFFEFD22E933E8330470F80203CF1238
:10012600039A58046009E4CC248150062850090239
:1001360003D92840030203D6C0E0EB4A7044B980D5
:1001460006D0E0FB0203C5EF4E701CBD8008EBFF36
:10015600EAFEE9FD80EBE98DF0A4FEE5F00201EF91
:10016600E9CDF9EAFEEBFFEF89F0A4FCE5F0CE89D4
:10017600F0A42EFFE435F0CD89F0A42DFEE435F091
:100186008067EF4E7005BD80D780C3EF8BF0A4ACBF
:10019600F0EE8BF0A42CFCE435F0F8EF8AF0A42CFA
:1001A600E5F038FCE433CB8DF0A42CFCE5F03BF80D
:1001B600EE8AF0A42CFCE5F038F8E433CF89F0A4FD
:1001C6002CFCE5F038CF3400CE89F0A42FFFE5F003
:1001D6003EFEE433C98DF0A42EFEE5F039CD8AF05B
:1001E600A42FFFE5F03EFEE43DFD33D0E0FB5007D3
:1001F6000BBB000F0203D9EC2CFCEF33FFEE33FEF2
:06020600ED33FD0203B11F
:10020C000203D9EC5D046005E8590470030203CFC6
:10021C0012039A580460F6EC4860F2EC7004FDFE90
:10022C00FF22C860DB2481C85009C39860025006C5
:10023C000203D69850CAF582E9294B4A7005AB8265
:10024C000203C575F0007C1A7880C3EF9BEE9AED23
:10025C0099400DC3EF9BFFEE9AFEED99FDE842F03D
:10026C00DC23ACF0D0E0FFD0E0FED0E0FDAB822090
:10027C00E7101BEB60BAEC2CFCEF33FFEE33FEED1A
:10028C0033FD0203B1E803F830E705C0F075F00068
:10029C00EF2FFFEE33FEED33FD40B830E7C280AAFE
:1002AC0074F8CC6480CCC86480C8F58204604FC3F9
:1002BC00EB9FF5F0EA9E42F0E99D42F0E89C45F098
:1002CC00603C501DE5825FFFE582D313CB5BCBF422
:1002DC002B5582FB50280ABA002409B9002008804B
:1002EC001DE5825BFBE582D313CF5FCFF4C3132FE5
:1002FC005582FF50090EBE00050DBD00010CC3EB6D
:10030C009FF5F0EA9E42F0E99D42F0E89C45F060D2
:09031C0007CC4820E701B3EC22F4
:1003250075F020800E75F010800575F0087D007E53
:10033500007F003392D530D503120565EC334010AC
:10034500EF33FFEE33FEED33FDEC33FCD5F0ED225C
:0E035500E5F0247EA2D513CC92E7CDCEFF2298
:10036300EDD2E7CD33EC3392D524814006E4FFFE92
:10037300FDFC22FCE4CFCECDCC24E0501174FF80F1
:10038300EDC3CC13CCCD13CDCE13CECF13CF04708E
:07039300F030D5DE02056524
:10039A00E9D2E7C933E833F892D5EDD2E7CD33ECA9
:0703AA0033FC5002B2D52222
:1003B100EC30E7100FBF000C0EBE00080DBD0004AD
:1003C1000BEB6014A2D5EB13FCED92E7FD2274FF59
:1003D100FCFDFEFF22E480F8A2D574FF13FC7D80B2
:0303E100E480EFC6
:10086200020BE2E493A3F8E493A34003F68001F2BF
:1008720008DFF48029E493A3F85407240CC8C33397
:10088200C4540F4420C8834004F456800146F6DF66
:10089200E4800B0102040810204080900CD7E47E13
:1008A200019360BCA3FF543F30E509541FFEE4935B
:1008B200A360010ECF54C025E060A840B8E493A322
:1008C200FAE493A3F8E493A3C8C582C8CAC583CA4D
:1008D200F0A3C8C582C8CAC583CADFE9DEE780BE05
:010CEA000009
:1003E400E709F608DFFA8046E709F208DFFA803EFB
:1003F40088828C83E709F0A3DFFA8032E309F608E8
:10040400DFFA8078E309F208DFFA807088828C834F
:10041400E309F0A3DFFA806489828A83E0A3F60803
:10042400DFFA805889828A83E0A3F208DFFA804CDD
:1004340080D280FA80C680D4806980F280338010B4
:1004440080A680EA809A80A880DA80E280CA80331D
:1004540089828A83ECFAE493A3C8C582C8CCC58395
:10046400CCF0A3C8C582C8CCC583CCDFE9DEE78065
:100474000D89828A83E493A3F608DFF9ECFAA9F0E4
:10048400EDFB2289828A83ECFAE0A3C8C582C8CC3A
:10049400C583CCF0A3C8C582C8CCC583CCDFEADE53
:1004A400E880DB89828A83E493A3F208DFF980CCB5
:1004B40088F0EF60010E4E60C388F0ED2402B404AE
:1004C4000050B9F582EB2402B4040050AF23234555
:0604D40082239004347342
:1004DA00BC000BBE0029EF8DF084FFADF022E4CC06
:1004EA00F875F008EF2FFFEE33FEEC33FCEE9DECCF
:1004FA00984005FCEE9DFE0FD5F0E9E4CEFD22ED15
:10050A00F8F5F0EE8420D21CFEADF075F008EF2F5E
:10051A00FFED33FD4007985006D5F0F222C398FD4F
:05052A000FD5F0EA22EC
:10052F00C2D5EC30E709B2D5E4C39DFDE49CFCEEE7
:10053F0030E715B2D5E4C39FFFE49EFE1204DAC381
:10054F00E49DFDE49CFC80031204DA30D507C3E47C
:06055F009FFFE49EFE2256
:0E056500C3E49FFFE49EFEE49DFDE49CFC22A7
:00000001FF
